:020000040800F2
:10000000E8060020E9500008C94F0008CB4F00085F
:10001000CD4F0008CF4F0008D14F0008000000006E
:10002000000000000000000000000000D34F0008A6
:10003000D54F000800000000D74F0008D94F000836
:100040000D51000811510008155100081951000800
:100050001D510008215100082551000829510008B0
:100060002D51000831510008355100083951000860
:100070003D510008DD4F000841510008455100087E
:10008000495100084D5100085151000855510008D0
:10009000595100085D510008615100086551000880
:1000A00069510008E34F00086D51000871510008C4
:1000B00075510008795100087D51000881510008F0
:1000C00085510008895100088D51000891510008A0
:1000D00095510008995100089D510008E94F00080A
:1000E000A1510008A5510008A9510008034608467F
:1000F0000122C168491CC1600021006818470346FD
:100100000846C1680269491C521E002A0261C1608A
:1001100003D400680122002118474FF0FF307047D8
:10012000034608461146C268521E11F1010FC26013
:1001300002D0006800221847704700002DE9F84FF0
:100140009AB04FF0FF34009100261B680193029291
:100150000DF13F02249B8DF81F30A04603961992A3
:10016000814613E00398401C03900122009800216F
:10017000C847064600F098FE0028F3D1324669468B
:100180004846FFF7CDFF0298411C02910298007883
:1001900000F08AFE0028E5D1029E307890B1252833
:1001A00015D1701C029001782A2911BF0021401C32
:1001B000029010F8011D8DF81C1000210591DFF848
:1001C000840A20E04045B8BF404600F038BD03989F
:1001D000401C0390012200980021C84731788842D2
:1001E000D1D0024669464846FFF79AFF0020E9E76A
:1001F0000599814205DA01EB810602EB4602303AAD
:100200000592591C0291029B1A78A2F130010A2929
:10021000EED306940FF63020197800F04FFE20B18F
:100220000298401C0290401E00788DF81D009DF839
:100230001D00682805D10299087868280CD162222F
:1002400006E06C2802BF029908786C2804D171225C
:10025000491C8DF81D200291029801780FF6F010CC
:1002600000F02CFE80B90398401C039001220098F6
:100270000021C847064600F017FE0028F3D1324699
:1002800069464846FFF74CFF00208DF81E00029893
:10029000017825392DD01C3900F09080091F0229E2
:1002A00040F28C80133900F02A83C91E1ED0891FAA
:1002B00000F08480891E00F0AC84491E00F01F838A
:1002C000491E02297AD9091F00F01983491F33D02A
:1002D000491E012940F21383091F2AD0891E00F00C
:1002E0000E83C91E00F00B8300F0A3BC224600F071
:1002F00091BC0398401C039001220098C847064611
:10030000252E0CD1B8F1000F9DF81E0048BF4FF00C
:10031000000800283FF437AF08F1010833E7324600
:1003200069464846FFF7FCFE16F1010F40F0818454
:1003300089E3012200F06EBC9DF81C000028E1D189
:100340009DF81D0062282DD0682811D06A281BD086
:100350006C2801D0712817D0019951F8040B019134
:1003600018B90FF6E82000F050BC03990160C9E706
:10037000019951F8040B019118B90FF6D02000F043
:1003800044BC03990180BDE7019951F8040B019128
:1003900018B90FF6B82000F038BC039AD317C0E99B
:1003A0000023AFE7019951F8040B019118B90FF63A
:1003B0009C2000F02ABC03990170A3E7059800284F
:1003C000D8BF6FF00040049069464846FFF797FE9B
:1003D00000262B2818BF2D280DF1280A07D18DF8EB
:1003E000280069464846FFF78AFE0DF1290A0A27C8
:1003F0000025302818D169464846FFF780FE40F0B6
:100400002001C9B2782902D00125294601E1302016
:100410008AF800008AF8011048466946FFF76FFE27
:100420000AF1020A1027F0E740F02001CAB26E2A52
:100430004CD16E200AF8010B69464846FFF75FFE73
:1004400083464BF020000027C0B2612840F0908125
:1004500061210AF8011B48466946FFF750FE8346B2
:100460004BF02000C0B26E2840F0828169464846B9
:10047000FFF745FE282806D0024669464846FFF7A2
:100480004FFE6E205CE00498401E049005D469463F
:100490004846FFF72BFE834603E00399491C03916E
:1004A000A346CDF820B0584600F013FD0028EAD14D
:1004B000ABF130000A28E6D308985F28E3D08346E2
:1004C000BBF1290F40F054816E2039E0C9B269298F
:1004D00040F0A68069200AF8010B69464846FFF7FC
:1004E0000EFE83464BF020000027C0B26E2840F07D
:1004F0003F816E210AF8011B48466946FFF7FFFD60
:1005000083464BF02000C0B2662840F0318103984A
:100510000499401C491E00290491039004D40098BA
:1005200001220021C84700E0204640F02001C9B266
:10053000692908D0024669464846FFF7F1FD662062
:100540000AF8010B1AE103980499401C491E00297E
:100550000491039005D4009801220021C8478346E6
:1005600000E0A3464BF02000C0B26E2840F00081AE
:1005700003980499401C491E00290491039005D456
:10058000009801220021C847834600E0A3464BF0B3
:100590002000C0B2692840F0EB8003980499401C09
:1005A000491E00290491039005D4009801220021DE
:1005B000C847834600E0A3464BF02000C0B2742831
:1005C00040F0D68003980499401C491E00290491EC
:1005D000039005D4009801220021C847834600E01B
:1005E000A3464BF02000C0B2792840F0C1806621BC
:1005F0000AF8011BC2E00398401C0390204607E064
:100600000498401E0490F6D469464846FFF76EFDF4
:1006100001213028F4D00D4611B130210AF8011B18
:100620008346284600250EE00398401C0390A3460D
:1006300008E00498401E0490F6D469464846FFF747
:1006400055FD834601201BF1010F1BD05FFA8BF291
:10065000612AA8BFABF157010ADA412AA8BFABF162
:10066000370105DA303A0A2A34BFABF13001FF21F5
:10067000C9B2B94206D2242DBABF0AF801BB6D1C1B
:10068000761CD6E78DF82000099500F069FC406AD9
:1006900001788B4510D10AF801BB03980499401CDE
:1006A000491E00290491039005D4009801220021DD
:1006B000C847834600E0A3460998E8B99DF82000A2
:1006C0000FE00398401C0390A34609E00498761EAF
:1006D000401E0490F5D469464846FFF707FD83465F
:1006E0000120BBF1300FF1D0002E8DF8200003D592
:1006F00030200AF8010B761C9DF82000099D13E0BC
:100700000398401C0390A3460DE0242DBCBF0AF8BB
:1007100001BB6D1C0498401E0490F1D46946484604
:10072000FFF7E4FC834601201BF1010F14D05FFAB0
:100730008BF2612AA8BFABF157010ADA412AA8BFA0
:10074000ABF1370105DA303A0A2A34BFABF1300198
:10075000FF21C9B2B942D8D3054648B14BF02000B9
:100760000A2FC0B235D1652835D001E083460D4649
:100770005A4669464846FFF7D3FC15B300218AF86C
:1007800000109DF81C0000287FF4BCAD0A2F0B461A
:1007900074DC32460AA800F02FFD01228DF81E20DD
:1007A000019A9DF81D60131D6C2E40F09380126815
:1007B0000193002A40F08B806248784400F5C370B2
:1007C00023E20AA8824508BF1BF1010F40F03282E4
:1007D00039E17028CCD10AF801BB0498401E04907E
:1007E00010D40398401C0390012200980021C847B0
:1007F0002B2818BF2D2811D10AF8010B0498401E90
:10080000049004D50398401C0390204606E003980A
:10081000401C0390012200980021C84700210DE0F0
:100820000398401C0390204607E00498401E049063
:10083000F6D469464846FFF759FC01213028F4D028
:100840000A001CBF30220AF8012B0025A0F130025B
:100850000A2A8BD2082DBCBF0AF8010B6D1C049824
:10086000401E049004D50398401C0390204603E0EA
:1008700069464846FFF73AFC0121E7E700220AA84B
:1008800000F0BAFCB2000E4673005B0D02EB0307EA
:1008900012D0002F10DD40F2FF72974207DBDFF825
:1008A000A47501F0004040EA0701002075E76FF3EE
:1008B0001E5646EA075170E720F0000631F0004767
:1008C00008BF002E3FF469AF00F056FD65E7C2E9AE
:1008D000000117E54C2E07D112680193002AF6D1CA
:1008E000184878445E3090E1166801931EB91548A7
:1008F0007844503089E100F0EBFD306002E5059866
:100900000028CCBF401EDFF84005002808AF049047
:1009100012D40398401C0390012200980021C8477C
:100920002B2818BF2D2816D18DF820000DF1210796
:100930000498401E049007D50398401C039020465D
:1009400009E000BFC84600000398401C0390012244
:1009500000980021C847029A12780021642A18BF23
:10096000752A0FD0692A08BF00260CD06F2A08BF4D
:10097000082608D0702A1CBF42F02002782A02D133
:10098000102600E00A26302862D104980125401E76
:100990000490039805D4401C039001220098C84796
:1009A00002E0401C0390204640F02001C9B27829A3
:1009B0004BD1002E18BF102E5CD104981026401E7B
:1009C0000490039807D4401C039001220098002152
:1009D000C84700254EE0401C039025464FF0000A12
:1009E00002E0574605468A462A4669464846FFF7CA
:1009F00097FBBAF1000F1FD0002139709DF81C0041
:100A000000287FF47FAC02980078642818BF69281A
:100A100000F0B680324608A800F064FE01228DF88E
:100A20001E20029A1378702B5BD1019B53F8042B84
:100A30000193002A53D1E7E008A8874208BF15F1C7
:100A4000010F40F0F6802546F4E09EB9082611E03B
:100A500006B90A26BA462DE00398401C03902046AA
:100A600007E00498401E0490F6D469464846FFF714
:100A70003DFB01253028F4D029460A00EAD0302277
:100A800007F8012BE6E70398401C0390204610E08E
:100A9000DBB2F2B29342A4D219998A4538BF0AF860
:100AA000010B0498401E0490EDD469464846FFF7B8
:100AB0001DFB012110F1010F93D0C2B2612AA8BF22
:100AC000A0F15703E4DA412AA8BFA0F13703DFDA27
:100AD000303A0A2A34BFA0F13003FF23D8E7106070
:100AE00010E49DF81D20622A3AD0682A11D06A2AA3
:100AF00026D06C2A06D0712A2AD0742A19D07A2AD4
:100B000010D036E0019B53F8042B0193002AE6D164
:100B10007AE0019B53F8042B0193002A74D01080D3
:100B2000FFF7F0BB019B53F8042B0193002AD6D1A9
:100B30006AE0019B53F8042B0193002ACFD163E0B4
:100B4000019B53F8042B0193002A7FF4C0AE5BE0B5
:100B5000019B53F8042B0193002A7FF4B8AE53E0B5
:100B6000019B53F8042B0193002A4DD01070FFF71E
:100B7000C9BB019B53F8042B0193002AAFD143E07A
:100B8000324608A800F002FE01228DF81E209DF8D2
:100B90001D20622AE4D0682ABBD06A2A1DD06C2AA4
:100BA00006D0712A21D0742A10D07A2A07D024E0E6
:100BB000019B53F8042B0193002A90D124E0019B60
:100BC00053F8042B0193002A89D11DE0019B53F8AF
:100BD000042B0193002A82D116E0019B53F8042BC9
:100BE0000193002A7FF473AE0EE0019B53F8042BAF
:100BF0000193002A7FF46BAE06E0019B53F8042BAF
:100C00000193002A7FF46BAF9FA000F0C3FD251A6B
:100C100005E000226946484600F040F80546002DF0
:100C20003FF770AB249828B115F1230F02D120466D
:100C300005E00025B8F1000F58BF454628461BB017
:100C4000BDE8F08FCBCCCC0C686A6C747A4C000099
:100C500063436E5B00000000C9B208E0037899426C
:100C6000A4BF90F802C08C4513DAC01CD21E032A20
:100C70000AD343782D2BF1D010F801CB8C4518BF47
:100C8000521EF4D105E0521E2AB110F8013B8B42EE
:100C9000F9D1012070470020704700002DE9F04F86
:100CA00092460027BAF1000F83B080460E464FF0FF
:100CB000000B25D5B068411CB160084601785E295B
:100CC00003BF401CB06010F8019DB946B568287894
:100CD0005D280CBF681C28465D2100F0EFF8002855
:100CE00000F0A880411B0091B0600098032807DB4A
:100CF000821E2D21681C00F06DFD08B14FF0010B24
:100D00007069002805DCBAF1000F14BF6FF00040D5
:100D100001203061307F002801BF706850F8044B1B
:100D20007060002C08D14FF0FF3402487844001D59
:100D300011E000BF28430000307FA8B9F07F98B1D0
:100D4000716851F8040B7160B0F1004FC0F007807A
:100D50004FF0FF3444A000F01DFD201A6FE0B16990
:100D6000884288BF0846B061CDF80490CDF808B03D
:100D7000DDF800901AE0306801220021C047834668
:100D80001BF1010F3ED0BAF1000F1ADD00F08CF814
:100D9000002837D1307F40B9B06990B304F801BB67
:100DA0000121B069B177401EB0610227F068316956
:100DB000401C491E00293161F060DCD54FF0FF3B3B
:100DC00020E0E7D50298002801980DD100284A4676
:100DD0005946284604D100F0FDFC0028DAD111E084
:100DE00000F0F8FC70B9D5E700284A465946284675
:100DF00004D1FFF731FF0028CCD103E0FFF72CFF2F
:100E0000F0E7012740465A463146FFF789F9BAF123
:100E1000000F01D0022F09D0022F0FD0F80702D403
:100E20001BF1010F06D14FF0FF3008E0307F28B9E9
:100E3000B06908B9002002E000202070012003B052
:100E4000BDE8F08F0000F07FFEFFFF7F7363616EEF
:100E5000665F733A2062616420256E206172677557
:100E60006D656E74000000007363616E665F733AB7
:100E7000206261642025632C2025732C206F722052
:100E8000255B2073697A65007363616E665F733AF0
:100E90002062616420696E746567657220617267A3
:100EA000756D656E7400000010B5044600F056F8CC
:100EB00001462046096ABDE810400847C9B20278D9
:100EC0008A421AB11CBF10F8012FF9E718BF0020A1
:100ED000704710B5044600F041F801462046096904
:100EE000BDE81040084730B4002513E050F8042B4B
:100EF000D30744BFA9F101039A18091F042942F836
:100F0000045BFAD213468C0744BF15809B1CC907AB
:100F100048BF1D7050F8041B0029E7D130BC704752
:100F2000613807E005E0A0F161011A2901D2012032
:100F3000704741381A288041C00F7047A0F109015D
:100F4000052901D3202801D10120704700207047D6
:100F5000A0F141011A2938BF20307047014870477D
:100F60000148704748000020100000207CB51D4655
:100F700021F000431446B3F5801F20F0000209D28F
:100F80000026002B08BF002A00960ED06A4600F00B
:100F90004DFC0AE0DFF8B46306EB13520092DFF871
:100FA000B033DFF8B0231140194322462B4600F03E
:100FB00075FC0B465A00009C520DA41892B1002CEF
:100FC00010DD40F2FF72944207DBDFF88C3301F052
:100FD000004040EA030100207CBD6FF31E5343EA4A
:100FE00004517CBD20F0000231F000430EBF002A06
:100FF000009A00F0C1F97CBD2DE9F84C002A824628
:101000008B461F4600F0F1802AF000043BF00045BB
:1010100008BF002C00F0E98048004015401C02D1B8
:10102000090300F0E2800020002ADFF8301340F1CD
:10103000838052426F4D7D4405F5DD7508241646C8
:1010400008E0F20744BFD5E9002300F027FC76084A
:101050000835641E002E18BF002CF2D10D462BF06F
:1010600000410446B1F5801F2AF000000BD2002297
:10107000002904BF0028594600920ED06A465946FE
:1010800000F0D4FB09E0B14A02EB1150B1490090E5
:101090000BEA0102AE495046114322462B4600F0AE
:1010A000CFFC0B465A00009C520DA4189AB1002C9C
:1010B00011DD40F2FF72944207DBA74A01F00040C5
:1010C0004FF0000A40EA020B10E06FF31E5343EAB0
:1010D000045B82460AE020F0000231F000430EBFBC
:1010E000002A009A00F048F982468B462AF0000256
:1010F0003BF0004308BF002A61D04FEA4B00401587
:10110000401C0CBF5FEA0B31002E58D050465946A8
:10111000934A944BFFF72AFF20F0000431F000457A
:1011200008BF002C49D04A005215521C01D10B03B4
:1011300043D0761EECD140E041DD2E4E7E44B436E5
:1011400008241546EA0744BFD6E9002300F0A6FBB1
:101150006D100836641E002D01DD002CF2D1024610
:101160000B4650465946FFF701FF82468B462AF050
:1011700000023BF0004308BF002A2C461FD0480065
:101180004015401C01D1090319D0002C17DD504631
:101190005946754A754BFFF7E9FE20F0000231F021
:1011A000004308BF002A08D04A005215521C01D142
:1011B0000B0302D0641E002CEBDC82468B462AF027
:1011C00000023BF0004308BF002A07D04FEA4B0063
:1011D0004015401C08BF5FEA0B3106D1AFF3008019
:1011E0001FB1386840F00100386050465946BDE8EC
:1011F000F48C00BF8C3D00002DE9F94987B01F0039
:101200001CBF00203860079E0C46154607A800F05A
:101210003AFDC21020F0080002F0010201280592F8
:1012200004952FD10220009001AB07992246304649
:1012300000F0BAFD040002D1002000211DE0029858
:1012400000F08EFE022C18DB0DF10C08661EDFF894
:1012500020B102460B460020594600F01FFB044611
:1012600058F8040B0D4600F07BFE22462B4600F09A
:1012700089FE761E02460B46EDD1049A019C3B4640
:10128000A2184BE002284CD1009001AB07992246EE
:10129000304600F035FF040002D10020002119E0A3
:1012A000029800F05DFE022C14DB0DF10C08661EA6
:1012B000DFF8C0B000225B4600F0F0FA044658F8B0
:1012C000040B0D4600F04CFE22462B4600F05AFE61
:1012D000761EEFD1019B0C466200520D03EB020516
:1012E00011D0002D0FDD40F2FF72954206DB1A4B44
:1012F00001F0004040EA030100200DE06FF31E54AE
:1013000044EA055108E020F0000431F000450EBF2A
:10131000002C1A4600F030F8049A3B46FFF76CFEAA
:101320000CE0032802D100200B4907E0042807BF86
:101330004FF0FF306FF0004100200021059A0AB104
:1013400081F0004109B0BDE8F089000002FCFFFF18
:101350000000E03FFFFF0F800000F07F0000F03F43
:10136000436FAC642806C80A3CBF737FDD4F157518
:1013700065CDCD410000B041124254D440F2FF7C13
:101380001CEA11530FD0634531D09B1863453CBF15
:1013900001EB0251704701F0004141EA0C5100207D
:1013A000AFF30080704750EA410320D001F0004CB9
:1013B00091EA0C011CD0B1FA81F30B3B9A420DD992
:1013C000D21A994051EA0C01C3F1200C20FA0CFC0E
:1013D00061449840531C40F2FF7CD7E7914041EABA
:1013E0000C01C2F1200C20FA0CF319439040704715
:1013F000B0FA80F31533202BE0D3202AEED3203A25
:10140000203B9A4209D9D21A00FA03F141EA0C01B1
:101410000020531C40F2FF7CB8E700FA02F141EAD9
:101420000C0100207047524240F2FF7C1CEA11532D
:101430000DD06345DBD0B2EB030C3CBFA1EB0251F6
:1014400070470CF1010221EA035141F4801150EA86
:10145000410CCCD001F0004C352A27DC30B481EAB5
:101460000C01B2F1200309DAC2F12003044601FAAB
:1014700003F5D0402843D1409C400CE0C3F120024A
:10148000450020FA03F418BF44F0010421FA03F0E8
:1014900091400C43002174F1004550F1000051EBE4
:1014A0000C01244230BC7FF47BAF704761460020C2
:1014B00076E703681AB95A1E026008467047197821
:1014C00011B94FF0FF307047591C01601878704710
:1014D00001F000428B1AA3F16051B1F5801F0ADBC5
:1014E000B1F17F6F1FD242EAC102C10071F1004128
:1014F00042EB507070470B15C3F10903212B10D23A
:10150000890241EA905180020128494141F000419D
:1015100021FA03F0C3F12003994071F100415041D9
:101520007047100070476FF0000013EB103F5CBF76
:10153000000E42EAC05070472DE9FC4F85B00C46C2
:1015400093460BB100221A600290824601E00AF134
:10155000010A9AF80000FFF7A7FC0028F7D19AF8D3
:1015600000002D2818BF2B2807BF1AF8010B8DF893
:1015700000002B218DF80010BBF1000F019405D461
:10158000BBF1010F02D0BBF1250F04DB002C71D0A1
:10159000029820606EE0BBF1000F0DDDBBF1100F73
:1015A00004BF9AF80000302802BF9AF8010040F00A
:1015B0002000782814D10EE09AF80000302818BFD7
:1015C0004FF00A0B0CD19AF8010040F02000782867
:1015D00004D14FF0100B0AF1020A01E04FF0080BA2
:1015E000CDF810A001E00AF1010A9AF800003028B5
:1015F000F9D00948784420300024283000250026FE
:101600000027CDF80CA0A0468DF80100DFF8089067
:10161000F94409F1040918E0143900009DF801109B
:10162000401A5FFA80F85846A0FB06234FEAEB7198
:1016300000FB073301FB0633344600213D4612EB25
:10164000080643EB01070AF1010A9AF8000000F0CE
:101650005BFE01465A4609F1280000F0BBF800285D
:10166000DCD1049951455A4607D1019810B101992E
:10167000029808600020002130E0039919F8020068
:10168000AAEB0101081A00281BD410DC0023B6EBDA
:10169000080067EB03018F4209D301D8864206D3C5
:1016A000D31700F03BFEA94208BFA04209D0AFF318
:1016B0000080069808B1012101604FF0FF363746DF
:1016C00006E09DF800002D2802D1764267EB47071F
:1016D000019808B1C0F800A03046394607B0BDE80F
:1016E000F08F000000BF002326E72E002DE9F8430D
:1016F0000D00804691461E4608BF6D46444600E0F8
:10170000641C2078FFF7D0FB0028F9D127782D2F13
:1017100018BF2B2F05D114F8010FFFF7C5FB50B9E7
:1017200000E02B2733464A4629462046FFF704FFB0
:101730002A68944205D1C5F8008000200021BDE848
:10174000F4832B2F05D14FF00043994209D2BDE815
:10175000F4832D2FFBD1B1F1004F12D301D8012812
:101760000FD3AFF300800EB1012030602D2F19BFD1
:101770004FF0FF306FF0004100204FF00041BDE816
:10178000F483404261EB4101BDE8F48300BF0023D4
:10179000ACE7430080B500B906A005490B681BB152
:1017A00022220021984701E000F0D0FE222002BD55
:1017B000E4020020636F6E73747261696E74206856
:1017C000616E646C65723A20626164206D6573734A
:1017D00061676500C9B2830706D0521E22D310F894
:1017E000013B9942F7D11FE0083A13D302F10402FA
:1017F00041EA012141EA014150F8043B121F21BF97
:101800004B40A3F1013C2CEA030C1CF0803FF3D0C9
:10181000C9B2001F083210F8013B521E28BF91EADE
:10182000030FF8D818BF0120401E704710B51446AA
:1018300000F002F8226010BDC1F30A5343B14A0020
:1018400012F5001F28D2A3F2FE32A1EB025170471D
:1018500050EA410C20D001F0004C31EA0C01B1FA01
:1018600081F204BFB0FA80F3D2180B3AB2F1200330
:101870002CBF00FA03F1914041EA0C013EBFC2F1D6
:10188000200C20FA0CF319439040524240F2FD33F1
:10189000D21A01EB0351704700227047B0B581EABC
:1018A000030C0CF0004C40F2FF7515EA11541DBFFB
:1018B00015EA1357AC42AF4239E0E41923EA455325
:1018C00043F48013C90241F0004141EA505EC7026F
:1018D0001100A7FB020200284FF00000EEFB0120E0
:1018E0004FF00001E3FB072118BF42F0010240184E
:1018F00000214941E3FB0E01A4F580640F0302D2ED
:1019000052004041494154F101046CDD470872F135
:10191000004250F1000051EB0451A1F580115CBF71
:1019200041EA0C01B0BD4CEA05510020B0BD05EA0A
:101930001357AC4214BFAF4241E050EA410E1CBF06
:1019400052EA430E02E061460020B0BD24423C440E
:101950001BD15FEA070EF6D0090302BF0146002043
:10196000AEF1140EB1FA81F7AEEB070401FA07FEEF
:101970000C37C7F1200100FA07F7C8404EEA000E05
:1019800023EA455343F48013A2E733F00043B3FA4C
:1019900083F704BFB2FA82FE77440B3FE41BB7F132
:1019A000200E2FBF02FA0EF3BB40C7F1200E22FA21
:1019B0000EFE38BF43EA0E03BA40641C82E750EAC9
:1019C000410E14BF52EA430E6FF000014FF40017AE
:1019D00017EB430F8ABF194617EB410FB5E74CEAE7
:1019E00005510020B0BDD4F10104B4F120070FDA95
:1019F000C4F12007520828BF42F0010210FA07F58F
:101A000001FA07F7E1BF2A43E0403843E1400FE025
:101A1000352C98DCC7F1200452EA400220FA07F284
:101A200018BF42F0010231FA07F0A1400A43002139
:101A300072F1004250F1000051EB0C01B0BD00000A
:101A4000F0B540F2FF7581EA030C0CF0004C15EA8A
:101A500011541DBF15EA1357AC42AF42E5E0BC413B
:101A6000C1F31301C3F31303801A994143F48013A4
:101A700004D2641E4000494180185941C90241EA1C
:101A80005051B1FBF3F603FB1611A2FB0675D7EB21
:101A9000C020A94102D2761E80185941C90241EAEC
:101AA0005051B1FBF3FE03FB1E11A2FB0E75D7EBE9
:101AB000C020A94103D2AEF1010E8018594189021C
:101AC00041EA9051760546EA8E2EB1FBF3F603FB10
:101AD0001611A2FB0675D7EB8020A94102D2761E13
:101AE00080185941C90241EA50514EEA060EB1FB35
:101AF000F3F603FB1611A2FB0675D7EBC020A94134
:101B000002D2761E80185941C90241EA5051B1FBF8
:101B1000F3F703FB1711A2FB0735D3EBC020A94154
:101B200067F100070CBF004247F0010766F3D527B5
:101B30004FEA1E31B80814F5806412DDBD0775F157
:101B4000004250EB0E5051EB045111F5801F5CBF69
:101B500041EA0C01F0BD4CF07F6141F0E041002012
:101B6000F0BDBD076D0840EA0E5041F48011D4F17C
:101B70000104B4F120060ADAC4F120060200E040B4
:101B800001FA06F3E1401843B24015430EE0342C4D
:101B900013DCC6F1200445EA40056D0820FA06F280
:101BA000154321FA06F0A1400D43002175F10042D2
:101BB00050F1000051EB0C01F0BD00205FEA0C0178
:101BC000F0BDCFB992185B41B3FA83F704BFB2FA04
:101BD00082F6BF190B3FB7F120062FBF02FA06F3BA
:101BE000BB40C7F1200622FA06F638BF3343BA409D
:101BF0001CB1E419641E33E77F4231F00041B1FAB1
:101C000081F404BFB0FA80F6A4190B3CB4F12006AD
:101C10002FBF00FA06F1A140C4F1200620FA06F613
:101C200038BF3143A0403C1B1AE7AC421ABF05EA5B
:101C30001357AF4212E050EA41061CBF52EA430676
:101C4000BFE750EA4107304661461CBF41EA0551F3
:101C5000F0BD52EA430C08BFC143F0BD00204FF471
:101C6000001616EB410F98BF16EB430F08BF16EB9B
:101C7000410F24BFC14305E016EB430F0CBF614683
:101C80004CEA0551F0BD2DE9F84305460C462E6897
:101C9000002700E0761C3078FFF706F90028F9D11C
:101CA00030782D280CBF08272B2800D1761C3078DF
:101CB00040F020016E2927D1707840F02000612883
:101CC00002BFB07840F020006E2802D02E680027B6
:101CD00046E0F61CB046042798F8000028283FD1BB
:101CE00018F8019F4846FFF7F4F80028F8D1A9F149
:101CF00030000A28F4D398F800005F28F0D0292893
:101D00002ED108F101062BE069292CD1707840F022
:101D100020006E2802BFB07840F02000662802D074
:101D20002E6800271CE016F8030F40F020006928F9
:101D300002BF707840F020006E2847F003070FD1F3
:101D4000B07840F02000692802BFF07840F0200011
:101D5000742805D1307940F02000792808BF761D1D
:101D6000F4B126601CE0302802BF707840F02000FB
:101D7000782813D1B01C01782E2908BF401C0078A8
:101D8000A0F16101062921BFA0F14102062A3038E5
:101D90000A2803D2B61C47F0020701E047F001070A
:101DA0002E603846BDE8F2832DE9F14F8CB04FF03C
:101DB0000008169DC34605EBC5052D2DC3F800B0E0
:101DC0009246C8BF2D25C3F804B0D94602E0491C8D
:101DD0004FF0010908783028F9D0002411E0186884
:101DE000401C18600A78302A08D04FF0010805E03E
:101DF000AC42F4DA30380DF80400641C491C4FF092
:101E000001090878A0F130020A2AF1D30F461E46D4
:101E1000FFF7A6F8406A39780278914208BF7F1C24
:101E2000002C48460ED1397830290BD13068401E3D
:101E300030607F1C0120F6E7302918BF4FF0010801
:101E40007F1C01203978A1F130020A2A0AD2AC4263
:101E5000F2DAA1F130000DF80400641C3268521E61
:101E60003260EDE7B8F1000F0DD00DF1FF314A5DA2
:101E7000521C4A5507E00DF1FF32115D49B9326835
:101E8000521C3260641E002CF5DC04BF8DF800B0DB
:101E90000124002857D04FF0090994FBF9F9C4F147
:101EA000090309EBC9010B44092193FBF1F100225D
:101EB00001EBC101591A1AD04FF0010B17E056F887
:101EC0002B1001EB810105EB410146F82B100CE0D2
:101ED000092193FBF1F101EBC1011DF80250591AE0
:101EE000EDD10BF1010B46F82B505B1C521CA242AA
:101EF000EEDB397841F02001652924D1394617F805
:101F0000012F164D2B2A16BF2D2A17F8014B2B2413
:101F10000022002308E0AB4204DA03EB83020CEB5F
:101F20004203303B7F1C012297F800C0ACF1300E19
:101F3000BEF10A0FEFD32D2C346808BF5B421B198A
:101F4000336002B90F46BAF1000F03D000B90C9FFD
:101F5000CAF8007058460DB0BDE8F08F00E1F505F5
:101F6000C11768B14840401AB0FA80F29040D21CC4
:101F7000C907C2F5846241EA025202EBD021400552
:101F80007047000070B44FF0004591EA030F40F134
:101F9000E1826B40841A71EB030604D26E40001B91
:101FA000B141121973414FF4001C1CEB410F34BFB7
:101FB0007CEB430683E00C0DA4EB1356362E00F3A6
:101FC0007C80012E45EAC32341DC43EA525312BF11
:101FD000D20292025B08240545EAC12141EA505130
:101FE000D2EBC020994125D407D1B0FA80F610FA7F
:101FF00006F162D00020203608E0B1FA81F6B14047
:10200000C6F1200220FA02F21143B0404FEAF47404
:10201000B4EB465434F001064FEA74040AD8D6F5FE
:102020000016760D04F00044F04061FA06F25040CC
:10203000F1404840C00A40EA415021F0004128BF29
:102040005FEA500550F1000044EBD12135E0DB0A96
:1020500045EAC121C90AB6F120050EDD42EA024275
:10206000120CC5F1200603FA06F6EB4042EA06051B
:102070006D42984161F100010DE062FA06F5F2400F
:10208000554063FA06FC82EA0C02F3405A406D4266
:10209000904161EB030111F4801F05D1641E6205BC
:1020A00002D06D004041494121F48011430875F18F
:1020B000004350F1000041EB045170BC70471CEB31
:1020C000410F15D223F0004352EA43060BD04FEAEA
:1020D0004C0CBCEB410F04D80C0D661E342EB7DD42
:1020E000EBE7801A994150EA410608BF0021E4E776
:1020F00008BF1CEB430F28BF6FF00001DDE70000B5
:102100002DE9F14F8CB04FF0000ADDF85880C3F88C
:1021100000A0C8EBC808B8F1230FC8BF4FF02308D0
:102120009146C3F804A0002701E0491C0127087864
:102130003028FAD068A201925FF000046CA20092ED
:102140000DF1080B0D461E460EE03068401C306055
:1021500008E0A045F9DB019A0099801A085C0BF8A9
:102160000400641C6D1C012795F800105AA016226B
:10217000FFF730FB0028ECD1FEF7F2FE406A297829
:102180000278914208BF6D1CB4B92878302813D169
:102190003168491E31606D1C0127F6E7A04509DB57
:1021A000019A0099801A085C0BF80400641C3168DD
:1021B000491E31606D1C01272978162246A0FFF7C1
:1021C00009FB0028EAD1A04517DA1BF808100729F7
:1021D00006DD0DF1070111F80820521C01F8082056
:1021E00044463268521C326007E00DF10702115D6F
:1021F00049B93268521C3260641E002CF5DC04BF01
:102200008DF808A0012431688900002F316055D075
:102210004FF0070C94FBFCFCC4F10703CCEBCC0C97
:102220006344072193FBF1F10022C1EBC101591A6C
:1022300018D04FF0010A15E056F82A100CEB0110E7
:1022400046F82A000CE0072193FBF1F1C1EBC10134
:102250001BF802C0591AEFD10AF1010A46F82AC048
:102260005B1C521CA242EEDB297841F02001702950
:1022700024D1294615F8012F16482B2A16BF2D2ADE
:1022800015F8014B2B240022002308E0834204DAD6
:1022900003EB83020CEB4203303B6D1C012295F8EB
:1022A00000C0ACF1300EBEF10A0FEFD32D2C346814
:1022B00008BF5B421B19336002B90D46B9F1000F2C
:1022C00003D007B90C9DC9F8005050460DB0BDE8C9
:1022D000F08F000000E1F505303132333435363708
:1022E0003839616263646566414243444546000093
:1022F000000102030405060708090A0B0C0D0E0F66
:102300000A0B0C0D0E0F000010B50446FEF726FE5A
:1023100001462046896ABDE810400847BBBBE1B1D1
:10232000B2F5803F80F07E80022A1ED98C46B1FB38
:10233000F2F102FB11C31B0443EA1043B3FBF2FCAE
:1023400002FB1C3380B240EA0343B3FBF2F002FB12
:10235000103240EA0C4000237047022A05D9844617
:10236000B0FBF2F002FB10C270474AB105D100F099
:10237000010249085FEA30007047002200237047DD
:1023800000F052B90B00020000210020704790427B
:1023900071EB030CF6D3B3F5803F2FD2F0B5B3FA4F
:1023A00083F7B1FA81F4A7F10F0E3D1B5340CEF134
:1023B000200602FA0EF2F3415340B5F10F0746D85A
:1023C0000F3C2C444140C4F12006A040F141414063
:1023D000B1FBF3F603FB1611A2FB0645001BA94156
:1023E00002D2761E8018594180EA010221FA0EF3CA
:1023F00062FA0EF200215A403046F0BD30B4B1FB13
:10240000F3FC03FB1C11A2FB0C45001BA94103D2EA
:10241000ACF1010C8018594130BC02460B466046B5
:1024200000217047B2F1807F65D3F0B5B2FA82F730
:10243000B1FA81F4C7F10F063D1B22FA06F307F14A
:10244000110EF24120355A40B5F10F07B8D941407D
:10245000C4F12006A040F1414140B1FBF3FC03FB75
:102460001C11A2FB0C45001BA94103D2BCF1010CBD
:10247000801859410F2F12D30F3FC90341EA504131
:10248000B1FBF3F603FB1611A2FB0645D4EBC030FB
:10249000A94102D2761E8018594146EACC3C07B3C6
:1024A0004140C7F12006B840F1414140B1FBF3F68D
:1024B00003FB1611A2FB0645001BA94102D2761EA2
:1024C0008018594180EA010221FA0EF3C7F1200475
:1024D00062FA0EF20CFA07F05A402CFA04F130437B
:1024E000F0BD80EA010221FA0EF3002162FA0EF239
:1024F00060465A40F0BD8C46B1FBF2F102FB11C3BD
:102500001B0243EA1063B3FBF2FC02FB1C331B0209
:102510004CEA002043EA1063B3FBF2FC02FB1C33DD
:102520001B024CEA002043EA1063B3FBF2FC02FBFF
:102530001C331B024CEA002043EA1063B3FBF2FC9D
:1025400002FB1C324CEA002000237047012000F0FF
:102550006DB80000841A71EB030603D2001BB14171
:10256000121973414FF4001C1CEB410F34BF7CEB7C
:10257000430442E00C0DA4EB1356352E4FDC45EA24
:10258000C323DB0A45EAC121C912B6F120050DDDDE
:1025900063FA05F6EB4086EA0305124218BF45F0E0
:1025A0000105C01851F100010CD213E062FA06F5E2
:1025B000F2405540F3415A40B340F3405A4080182E
:1025C000594107D349085FEA30005FEA350528BF63
:1025D00045F0010501F58011420875F1004250F106
:1025E000000041EB04514E0016F5001F70BC38BFCF
:1025F00070470020090D090570471CEB410F10D2F0
:1026000052EA43060BD0BCEB410F05D80C0DAB438F
:10261000661E342EB6DD02E0AB438018594170BC13
:10262000704770BC704700007047000080B5AFF382
:102630000080024A11001820ABBEFBE72600020012
:1026400038B5040001D1012032BD00F0B3F818B94B
:1026500000F0C2FA00F0F3FB2DE090F83D100129E4
:1026600001D001207047022180F83D100168CA683E
:1026700042F00102CA600068DFF83011884218BFDA
:10268000B0F1804F07D0DFF8281188421CBFDFF877
:102690002C21904209D1816801F00701062908D058
:1026A000016841F00101016003E0026842F00102AB
:1026B00002600020704702206870211D206800F031
:1026C0008FFA0120A872A870E87028716871A8714B
:1026D000E871287268726870002032BD38B5040055
:1026E00001D1012032BD00F065F818B900F074FA8C
:1026F00000F0F6FBDFE710B5044604F13E0009B92F
:10270000027807E0042908BF427803D008290CBFEB
:102710008278C278012A01D0012010BD11B90222AD
:1027200002700AE0042902D10222427005E0082961
:1027300007BF022282700223C3702068012200F0CA
:1027400052FB00F025F818BFB1F1804F06D000F021
:102750001BF81CBFDFF86420914205D100F00FF890
:1027600006D000F007F803E00A6842F001020A60B0
:10277000002010BD086840F00100086070478868BC
:1027800000F0070006287047DFF8240081427047F8
:102790002168DFF81800814205D1DFF8BC100A6813
:1027A00042F400420A60216881427047002C0140D7
:1027B0000004004004F13C056878704700080040C0
:1027C000F8B504000E4601D10120F2BDFFF7F2FF7B
:1027D00018B900F001FA00F04CFB02206870216883
:1027E000DFF82C038A6802408A60211D206800F00F
:1027F000F7F92268DFF81C1393689069176A0140A3
:10280000B0680843B16940EA0120DFF80C130140C9
:10281000F0680843F16940EA0121306941EA00109B
:10282000316A40EA013C7068716927F0220707436A
:102830003068034347EA011793602168C1F818C064
:10284000012120680762A972A970E970A971E97174
:1028500069700020F2BD0000442C014070B500F00A
:1028600038F839B9012A08BF012D15D102210170AC
:10287000017119E0042907D1012B08BF012E0BD1EA
:1028800002214170417114E0012A08BF012B03D1DC
:10289000012D08BF012E01D0012070BD00F013F8FA
:1028A00011B1042905D002E00122002103E000F06B
:1028B0001EF801220421206800F095FAFFE7206845
:1028C00000F00FF870BD0222027042700271427176
:1028D0007047044604F13E00027843780579467952
:1028E0007047016841F001010160002070472068D5
:1028F0000122002100F077BA10B504462068016972
:102900008A0715D5C1688A0712D56FF002010161E7
:1029100001222277806910F0030F204602D000F0D8
:102920007DFB03E000F07BFB00F087F800202077C0
:10293000206801694A0715D5C1684A0712D56FF0AA
:102940000401016102222277806910F4407F204651
:1029500002D000F063FB03E000F061FB00F06DF8D3
:1029600000202077206801690A0715D5C1680A0789
:1029700012D56FF00801016104222277C06910F0BE
:10298000030F204602D000F049FB03E000F047FBB4
:1029900000F053F80020207720680169CA0615D599
:1029A000C168CA0612D56FF01001016108222277B2
:1029B000C06910F4407F204602D000F02FFB03E0F6
:1029C00000F02DFB00F039F8002020772068016925
:1029D000CA0708D5C168CA0705D56FF001010161B2
:1029E000204600F01DFB206801690A0608D5C16871
:1029F0000A0605D56FF080010161204600F06EFEE9
:102A0000206801694A0608D5C1684A0605D56FF0F5
:102A100040010161204600F062FE206801698A06DB
:102A20000AD5C1688A0607D56FF0200101612046EA
:102A3000BDE8104000F054BE10BD204600F051BE6D
:102A4000002084F83C002846704770B500F058F824
:102A500001D1022070BD012084F83C0032B1042A6B
:102A600015D0082A25D00C2A34D045E0206800F083
:102A7000E6F82168886940F008008861886920F0DC
:102A8000040088618A69306902438A6135E0206800
:102A900000F0FAF82068816941F400618161816980
:102AA00021F4806181618169326941EA0221816199
:102AB00023E0206800F011F92168C86940F008009F
:102AC000C861C86920F00400C861CA69306902435E
:102AD000CA6112E0206800F028F92068C16941F459
:102AE0000061C161C16921F48061C161C16932695C
:102AF00041EA0221C16100E00125FFF7A1FF70BD9D
:102B00000446002594F83C0001280E46704700005A
:102B1000F8BFFFFFFCFCFFFF0303FFFF70B5064695
:102B200006F13C0500242878012801D1022070BD5F
:102B30000120287002226A70DFF830023268936840
:102B4000034093600868020018BF102830D0202886
:102B500018BF30282CD0402826D0502819D0602803
:102B60001BD0702806D0B0F5805F27D0B0F5005F8D
:102B700007D022E000F02BF83068816841F077013F
:102B800005E000F024F83068816841F480418160FC
:102B900014E000F018F850210BE0CA68496830686A
:102BA00000F0FDF8602104E000F00DF8402100E0A5
:102BB0000146306800F005F900E00124012068704A
:102BC00000F00AF870BDCA6849683068D8E0CB6880
:102BD0004A6889683068FCE0002129702046704707
:102BE00070B5634E0368634C634DB04218BFB0F1DB
:102BF000804F03D0A84218BFA04209D14A6823F0F1
:102C000070031343B0421CBFB0F1804FA84201D003
:102C1000A04203D1CA6823F4407313434A6923F0E6
:102C2000800313430360B0428B68C3620A68826208
:102C300002D10969514A11600123436170BD70B529
:102C4000066A026A52085200026226F002064468CE
:102C500085690B688A6825F073051D431643444B4C
:102C600098420BD1CA684B6926F0080624F44074D8
:102C700016438A691C4326F00406144344608561A8
:102C800049684163066270BD70B5056A026A384ED4
:102C900022F01002026225F02005436884690A6868
:102CA00024F4E64444EA02248A68B04245EA021564
:102CB0000DD1CA684E6925F0800545EA02158A697A
:102CC00023F44063164325F0400543EA860343603E
:102CD000846149688163056270BD70B5056A026AE6
:102CE00022F48072026225F400754368C4690A68A0
:102CF0008E6824F0730414431D4A904245EA062569
:102D00000DD1CA684E6925F4006545EA02258A6935
:102D100023F44053164325F4806543EA06134360C9
:102D2000C4614968C163056270BD70B5046A026A16
:102D30000F4E22F48052026224F400544268C369A8
:102D40000D6823F4E64343EA05238D68B04244EA64
:102D5000053404D14D6922F4804242EA8512426072
:102D6000C36149680164046270BD00008800FFFF10
:102D7000002C01400008004000040040302C0140BD
:102D800010B5036A046A64086400046223F00A034D
:102D9000846924F0F00444EA021484612EE010B542
:102DA000036A046A24F01004046223F0A003846917
:102DB00024F4704444EA0234846143EA0113036258
:102DC00010BD826822F07002114341F0070181605A
:102DD000704710B5846824F47F442143114341EACD
:102DE0000321816010BD10B501F01F01036A0124A9
:102DF0008C40A343036202FA01F1036A19430162A2
:102E000010BD00007A4881B0016841F00101016005
:102E1000026802F0010200920099426842F080527A
:102E20004260406800F0805000900098714801684E
:102E300021F0E06141F00071016001B0704700686D
:102E40006D49884200D0704780B56948026842F4F5
:102E5000006202600022006800F40060009001211E
:102E60000098192000F058FCBDE80240192000F03D
:102E700070BC18B585B000F0B5F821685F485C4AB1
:102E8000B1F1804F0AD1516841F0010151605168A0
:102E900001F0010100F019F803220CE0584B9942AF
:102EA00011D1516841F002015160516801F00201F5
:102EB00000F00BF8C0220499009200230122019334
:102EC000029200F08CF806B010BD049104991368CA
:102ED00043F004031360126802F004020492704786
:102EE00081B000684749884209D14748026842F0EA
:102EF00004020260006800F004000090009801B035
:102F0000704718B585B004461022002101A800F0D2
:102F10004BFC21683B48814213D13548016841F0A0
:102F200008010160C021006800F008000090022242
:102F300000983648019102920321049101A900F002
:102F40003DFC06B010BD30B585B000F04BF82168EF
:102F50002F48814240D126482C4D416841F48021C0
:102F60004160416801F4802104910499026842F0B3
:102F7000080202604FF48061006800F008000490CD
:102F800002220498009101920321039100F026F897
:102F90004FF40060002100900191029100F01EF8B2
:102FA0001C4D1D48286000218020E8606960A960F0
:102FB00029616961A961E961284600F0DDFC08B179
:102FC00000F085FBE5636C6200220021272000F001
:102FD000A3FB272000F0BDFB05B030BD28466946A5
:102FE00000F0ECBB044610220021684600F0DCBB78
:102FF0001810024004000140002C0140000801406C
:1030000000040040000800401C100240000C014079
:1030100000480040FC00002030000240704770472C
:10302000DFF8B41500684A6A904200D0704770B566
:1030300000F057F8DFF8A445E56E266F31462846C4
:1030400000F08FF8A0623146284600F0A0F8E06456
:1030500000F068F8E06300F06BF82066E26BA16AAC
:1030600004F11C0000F00FF86066226EE16C04F1C0
:10307000400000F009F8A066606E00F0AAF8A06EAB
:10308000BDE87040EAE000E000BF2DE9F0410446F1
:103090000846114600F014FE0546A0692561294640
:1030A00000F04EFE06466169A661284600F008FE63
:1030B0000746E7612946206800F0B4FE8046606854
:1030C000314600F0AFFE414600F03AFE0646A068E9
:1030D000394600F0A7FE314600F032FE6561BDE8DA
:1030E000F08110B5DFF8F4440B2204F11001201D2B
:1030F00000F004FF04F1700304F16C02201DBDE830
:1031000010400FF2D05100F005BF38B50C46DFF883
:10311000CC54DFF8CC040C2205F1100100F04BFF79
:103120002C7031BD70B5DFF8BC44DFF8BC6404E03E
:1031300070B5DFF8B844DFF8B8646068416A218090
:10314000002535603C21605F484301F087FADFF8D5
:10315000A41401F095FADFF8A01401F091FAE064EC
:1031600070BD38B500F02AF800F02DF8294600F0BF
:10317000E7FDDFF8881401F083FADFF8841400F02B
:1031800051FEBDE83440DFF87C1401F079BA38B55F
:1031900000F014F800F017F80146284600F090FD02
:1031A000DFF8581401F06CFADFF8541400F03AFE1E
:1031B000BDE83440DFF8501401F062BA0C464FF01D
:1031C000804100F02FBE0546DFF84004214600F0A4
:1031D00029BEE0B5002101F0D1FA00F094F819D22F
:1031E00001F0DEFA002848BF404201F037FA0746F6
:1031F000012200F07FF800224FF4007100F07CF80B
:10320000384601F0E3FA00F07AF800F06FF801F0C8
:1032100001FB02463846002101F01AFB18D201F0EA
:10322000BFFA070048BF7F42002200F063F8012286
:103230004FF4007100F060F8384601F00FFA01F029
:10324000C5FA00F05CF800F051F801F0E3FA02462C
:10325000DFF8BC03016892B24A63E0BDE0B500212B
:1032600001F08CFA00F04FF81BD201F099FA002817
:1032700048BF404201F0F2F9074600224FF4806156
:1032800000F03AF801224FF4006100F035F83846BA
:1032900001F09CFA00F033F800F028F801F0BAFAD7
:1032A00002463846002101F0D3FA1AD201F078FA2A
:1032B000070048BF7F4201224FF4806100F01CF8F4
:1032C00000224FF4006100F017F8384601F0C6F90B
:1032D00001F07CFA00F013F800F008F801F09AFA17
:1032E0000246CB48016892B28A63E0BD00222B46B9
:1032F000FEF7D4BA4FF48071304600F01FBB0022B5
:10330000C44BFEF79DBB0746C34DC44E70472DE925
:10331000F043B24CC248C349C34AAF4DBF4FE0610E
:10332000002321626262A362E3626363A363206499
:103330006164A264E3642365A365E3652860EB60D0
:10334000BA48BB496860A9602B61AB61EB618BB087
:1033500001F090FA00F08AF901A800210022002370
:10336000002680E84E00B34E706840F02000706088
:103370000122706800F0200000904FF6FF7800985E
:10338000716841F004017160706800F00400009001
:103390000098716841F0080171604FF470617068C5
:1033A00000F0080000900098384600F0C7FA0122AB
:1033B000029203924FF4706101910322049201A9D9
:1033C000384600F0FBF9306840F001003060002220
:1033D0003168844E01F001010091002100980D2018
:1033E00000F09AF90D2000F0B4F9242102A801F0B0
:1033F00053FA00210022CDE90012B2604FF0804163
:103400007160726100210320F160F16100F01FF929
:10341000C6F8108002A9301DFFF7D2F908B100F0FC
:1034200056F900F01FF9301D00F00EF908B100F058
:103430004EF9242102A801F02FFA00210022CDE943
:1034400000126A4F7C497960BA607A6100210320DA
:10345000F960F96100F0FBF8C7F8108002A9381D87
:10346000FFF7AEF908B100F032F900F0FBF8381DB3
:1034700000F0EAF808B100F02AF90021CDE90011C6
:1034800002A81C2101F008FADFF884816B48C8F813
:103490000000472140F2E7300022C8F80C00C8F8CD
:1034A0000410C8F80820C8F81020C8F818204046B2
:1034B000FFF714F908B100F00AF900F0D3F840461C
:1034C00000F0C2F808B100F002F960210291002278
:1034D00003920492069202A94046FFF7B6FA08B199
:1034E00000F0F5F8042202A94046FFF7AEFA08B151
:1034F00000F0EDF84046FFF704FD02A8002100228D
:1035000000238C4680E80E10CDE9001240F26710CF
:10351000A86240F2CF704A4928636962EA626A632E
:10352000AA63EA6305F12400FFF78AF808B100F006
:10353000CEF84FF48050029002A905F12400FFF765
:10354000EDFA08B100F0C3F800F08CF805F12400A2
:1035500000F07AF808B100F0BAF8DFF88490394842
:10356000C9F800004FF4E1310C200022C9F8140022
:10357000C9F80410C9F80820C9F80C20C9F81020AF
:10358000C9F81820C9F81C20484600F0D7FC08B13B
:1035900000F09DF805F12400FFF75FF80C2204F11C
:1035A0001001484600F007FDE86E016821F00401B3
:1035B000016040460021FFF79EF804214046FFF7D6
:1035C0009AF80421381DFFF749F90421301DFFF74F
:1035D00045F9FEE7000000009000002040010020B7
:1035E0009C020020B40100202400004004020020BE
:1035F000240400400080BB440AD7233CB81E853D0C
:1036000000007042C3F5C8C0C3F5C840CDCCCC3D66
:10361000540200200000594000408F400008014043
:103620003333B33FEC51383E0AD7233E8FC2F53CCB
:103630008FC2753D14100240000400400008004095
:10364000002C014000480040694601F029B9029071
:103650000391012205910691079109910A91049223
:1036600008927047002100910191704700B58FB01A
:10367000282105A801F010F91421684601F00CF981
:103680004FF480310022069107920D9101200590A0
:10369000099002224FF4E0110C920E9105A801F05E
:1036A00031F908B172B6FEE7022101910F204FF403
:1036B00080610090002203910292049202216846E8
:1036C00001F0AAFA08B172B6FEE70FB000BD72B6FB
:1036D000FEE700005625662C5425660070477047AB
:1036E000704770470901020002D42948815470478D
:1036F000284B02F00F021A4402F8041C7047264BB4
:1037000019684FF6FF020002114000F4E060084320
:10371000224908431860704770B51F4B1C68C4F3FA
:1037200002230124C3F10705052D2EBF0F2504FA3E
:1037300005F56D1E1E1D072E34BF0023DB1E29401C
:10374000994004FA03F3BDE870405B1E1A40114330
:10375000C8E7010007D4012200F01F01104B8A4086
:10376000400943F82020704710B5401EB0F1807F1B
:1037700001D3012010BD0B4C60600F214FF0FF30D2
:10378000FFF7B0FF0021A16007202060002010BDDE
:1037900000E400E018ED00E00CED00E00000FA05A8
:1037A00000E100E010E000E010B5044610460A46D3
:1037B0000146204601F006FB204610BD2DE9F847E2
:1037C0004FF0000E00245F4A5F4BDFF880814FF01E
:1037D0000F0982460CE017683840106006E055601B
:1037E0004D68ED03F7D51068074317600EF1010E21
:1037F0000F6837FA0EF000F09F80012000FA0EF6F5
:103800003740B742F2D1486838B301281AD00228AD
:103810001DD003282ED0112816D012281AD04C4DB6
:10382000A8421CBF4B4DA84217D04B4DA8421CBF0D
:103830004A4DA84211D04A4DA8421CBF494DA8424A
:103840000BD018E0CC6816E0CC68241D13E0CC68DF
:10385000083410E0CC680C340DE0886808B9042402
:1038600009E0012819BF0824CAF814600824CAF81E
:10387000106000E00024B7F5807F03D250464FEA85
:103880008E0C05E0AEF108050AF104004FEA850C44
:10389000056809FA0CF6B54304FA0CF635430560E1
:1038A0004868C000A2D5D8F8000040F00100C8F870
:1038B0000000D8F8005005F0010500954FEA8E058C
:1038C00000984FEA9E0053F8206005F00C0C09FAAE
:1038D0000CF526EA0505244EB24508BF00260ED099
:1038E000224EB24508BF012609D0214EB24508BF7D
:1038F000022604D01F4EB2450CBF0326042606FA4A
:103900000CF6354343F82050F8434D68ED029568B6
:103910004CBF3D43054095604D68AD02D5684CBF36
:103920003D430540D5604D685668AD034CBF47EA3E
:10393000060500EA060552E7BDE8F18702B9090469
:103940000161704700040140080001401810024066
:1039500000001110000012100000211000002210C1
:10396000000031100000321000080140000C01403E
:10397000001001400014014030B508B9012030BDED
:103980000468DFF8F4120919142200F13803B1FBBE
:10399000F2F292009A600222DFF8E012596080F899
:1039A00021202568416882686FF30D150D43C168B9
:1039B000154302690D434169154382690D43C1698D
:1039C00015430D43256000241C6000F0ABF8002077
:1039D00030BDF8B50446002594F82000012801D137
:1039E0000220F2BD012084F8200094F82160012E0D
:1039F00024D1022004F12C0684F82100F56020680F
:103A000007687F087F000760204600F047F92168BB
:103A1000306820B10A6842F00E020A6008E00868C7
:103A200020F0040008602068016841F00A0101608C
:103A30002068016841F00101016002E084F8205033
:103A400002252846F2BD10B590F82110022900F198
:103A5000380206D004231360002180F820100120D2
:103A600010BD01680B6823F00E030B600123016891
:103A70000C68640864000C60916852688B40536065
:103A8000012180F82110002280F82020002010BDA4
:103A900038B590F821200024022A00F1340103D027
:103AA0000420486001243BE00268136823F00E0301
:103AB00013600268DFF8C83115686D086D00156085
:103AC00002689A4208BF012222D0DFF8B8319A4238
:103AD00008BF10221CD0DFF8B0319A4208BF4FF463
:103AE000807215D0DFF8A4319A4208BF4FF480529B
:103AF0000ED0DFF89C319A4208BF4FF4803207D0D5
:103B0000DFF890319A420CBF4FF480124FF0807270
:103B1000DFF884311A6000F005F8096801B18847C0
:103B2000204632BD012280F8212080F820407047D5
:103B30002DE9F84F00F1280204275169554BD1F8BF
:103B400000E0056854492E68D2F818A0504CDFF800
:103B50003C81DFF83491DFF82CB1DFF824C107FA9B
:103B60000AF71EEA070F2DD077072BD52E68B60669
:103B700003D42E6826F004062E600568654508BF4C
:103B8000042318D05D4508BF402314D04D4508BF1D
:103B90004FF480630FD0454508BF4FF480430AD0EF
:103BA000A54208BF4FF4802305D09D420CBF4FF4BF
:103BB00080034FF080630B605168002958D0BDE846
:103BC000F44F0847022707FA0AF71EEA070F32D018
:103BD000B70730D52E68B60606D42E6826F00A063A
:103BE0002E60012580F821500568654508BF022335
:103BF00018D05D4508BF202314D04D4508BF4FF4B1
:103C000000730FD0454508BF4FF400530AD0A542BA
:103C100008BF4FF4003305D09D420CBF4FF4001392
:103C20004FF000730B60002180F820101168F9B18B
:103C3000BDE8F44F0847082101FA0AF11EEA010F16
:103C400016D0310714D52B6823F00E032B60012406
:103C5000916953698C405C600121116180F82110E9
:103C6000002180F82010916811B1BDE8F44F084799
:103C7000BDE8F18F00000000F8FFFDBF000002402A
:103C8000080002401C000240300002404400024094
:103C9000580002406C0002400400024070B5046C01
:103CA000C66B0125A54075600468636040681028F4
:103CB00002D1A260E16070BDA160E26070BD000051
:103CC00090EA010F40F1428081F00041421A3CBF6E
:103CD000801A89184FF0004CC0F3C752FF2A24D035
:103CE000C1F3C75313B3D21AD2F1190327DD4CEA3B
:103CF00001214CFA03F321EA0303D140C20D4CEA3F
:103D00000020401834BF20EA0C004CEA5000D205D5
:103D100053EA006373EB0C0C52EB1020420012F1DB
:103D2000807F38BF7047C00DC0057047490212BF81
:103D30009A4200EB5120F8E7D2F11703D9D570472A
:103D400090EA010F7FF5C2AF81F00041431A4FF0B6
:103D500000423EBF5340C01AC91800BFD3095FEAF2
:103D6000D05C13EB400F34BFB3EB410F40E07CEB72
:103D7000D1530CD342EA012122D8D1EB402009D300
:103D8000400A28BF5FEA500140EBCC507047401A10
:103D900015D04002B0FA80F2521C9040400A4FEA1F
:103DA0003C23B3EB026384BF00EB730007E040F4F5
:103DB00000001A16DB07C2F10102D0401843704719
:103DC000182BFCDC31FA03F202FA03F3591A38BF5C
:103DD00042F00102D2EB40203CBF4000ACF1010CAC
:103DE0005FEACC5CC20572F100414CEB5020704799
:103DF00013EB400F0FD2C94209D0ACEBD153022BC9
:103E000003DB4902172BDDDD70479143401AC042A6
:103E1000D5D10020704713EB410FD0D36FF00000D5
:103E200070470000FF2212EAD05C1DBF12EAD15396
:103E3000944593422BE09C44D30780EA01021A4048
:103E400043EA002043EA0121A1FB0030C04238BF11
:103E500040007CF17F010BDBFE294ADA5B0842EA75
:103E6000C15153EA006373F1004C51EB10207047CD
:103E7000D1F1080CDCF120012FDB5B0810FA01F115
:103E80000B4320FA0CF073F1004150417047944508
:103E90001CBF02EAD153934280EA010202F00042C1
:103EA0001DD0400019D0490017D05BB9634514D02C
:103EB0000902B1FA81F39940BCEB030CC00140F058
:103EC0000040C1E70002B0FA80FC10FA0CF0B3EB3E
:103ED0000C0CC90141F00041B6E7100070474000EA
:103EE0000AD0490008D010F1807F94BF11F1807F83
:103EF00002E042F0FF407047D04370474AB10000F3
:103F000011F8013B521E00F8013B1CBF11F8013BA8
:103F1000F8E770470DB4C0B50A4604A80021019027
:103F2000009101AB03A9044878440C30FCF706F972
:103F300006BC5DF810FB00BF7BD5FFFF38B5040061
:103F400001D1012032BD00F019F808B900F01AF8CB
:103F500000F01DF800F025F8FFE7416100F001F8DE
:103F600032BD2068C16841F40051C1600020686022
:103F700020216970A97000216163704704F1400538
:103F800068787047002129702046FEF7DCBF2420A6
:103F900068702068C16821F40051C160204600F0BB
:103FA00018BB2068016921F49041016120684169D2
:103FB00021F02A01704738B5044694F842002028C1
:103FC00009D109B1100001D1012032BD00F005F87E
:103FD00000F011FA07E0022032BD01202063002327
:103FE000636320467047010018D1206B012814D16B
:103FF00000220092226800F013F80098226802F173
:104000000C0353E8002F206800F10C0542F0100269
:1040100045E800200028F1D100E00121084632BD2A
:1040200013680093526800927047216801F11402EE
:1040300052E8001F206800F1140321F0400143E81A
:104040000010002870477CB5044621680B68CD68D5
:104050004A6913F00F0007D1980661D5AA065FD50B
:104060002046BDE876404FE2D00702D415F4907F99
:1040700056D0D80705D5E90503D5606C40F001009E
:104080006064580705D5D10703D5606C40F0020085
:104090006064980705D5D10703D5606C40F0040033
:1040A0006064180707D5A90601D4D00703D5616C51
:1040B00041F008016164606C002830D0980604D596
:1040C000A90644BF204600F01FFA20684069616CD1
:1040D0000A0701D440061DD5204600F0F3F92068F8
:1040E0004169480611D5FFF7A0FFFCD1E06B60B134
:1040F0000FF209414163E06BFFF7CAFC00280ED0C4
:10410000E06B416BBDE87C4008472046BDE8764047
:1041100000F08BBE204600F088FE0020606473BD76
:10412000206B012804F1410240F08C80D80600D5B4
:10413000EE0640F18780002300930D6800954B68E0
:10414000009300984969480640D5E16B08684068CB
:1041500080B20028E3D0A38D9842E0DAE085886938
:1041600020282DD0216801F10C0050E8001F2368A1
:1041700003F10C0521F4807145E800100028F1D10D
:1041800000F09CF8490800F11405490045E80010CA
:104190000028F5D100F092F800F1140521F040015B
:1041A00045E800100028F5D120205070002121633F
:1041B00000F08AF800F019F9FAD1E06BFFF743FC40
:1041C00002206063A18DE08D091A35E0A08DE18D9C
:1041D000411AE08D00281CBF88B200286DD02068ED
:1041E00000F10C0353E8003F00F10C0623F4907338
:1041F00046E800300028F2D1206800F1140353E8AB
:10420000003F5B0800F114065B0046E80030002820
:10421000F2D12020507000222263206800F10C02AD
:1042200052E8002F00F10C0522F0100245E80020B2
:104230000028F2D1022060632046BDE87C4089B2AC
:10424000FEF763BF180629D52E0627D5107821283A
:1042500033D1A068B0F5805F04BF2069002808D181
:10426000206A0288C2F308024A60206A811C216227
:1042700004E0206A421C226200784860E08C401E04
:10428000E08480B2C8B92068C16821F08001C160B3
:104290002068C16841F04001C16073BD58060CD56B
:1042A0006B060AD5C86820F04000C8602021117054
:1042B0002046BDE8764000F0B9BD73BD206800F12E
:1042C000140151E8001F7047206800F10C0151E80B
:1042D000001F00F10C03704710B500F023F813D451
:1042E0000021C18500F02AF800F022F8FAD100F090
:1042F0003CF8FCD100F02BF8202180F84210026B32
:10430000012A01D100F057F900214163026B012A13
:1043100004D1818DBDE81040FEF7F7BEBDE8104026
:1043200000F085BD0146486A09680A68930670472F
:1043300022F4807244E8002100297047026802F1EB
:104340000C0151E8002F036803F10C047047016869
:1043500001F1140252E8002F01F1140422F040028E
:1043600044E800210029F2D17047016801F11402EC
:1043700052E8002F520801F11404520044E80021D1
:1043800000297047406A01214163026B012A18BF6E
:1043900000F04EBD818D4908FEF7B7BE0000000059
:1043A00038B5446A2068406904F14105297821291B
:1043B00006D1010604D50022E284204600F068F808
:1043C000216848696978222906D1400604D5002170
:1043D000E185204600F076F8606C40F010006064E3
:1043E0002046BDE8324000F020BD21F0100143E836
:1043F0000010002870477CB504461346A162A385CF
:1044000000206064222284F842208F48E26B906290
:10441000E26B8E48D062E26B8D4810630020E56B42
:1044200068630A462668E06B311DFFF7D2FA002167
:10443000009121680A68009249680091009A2069F9
:1044400030B100F014F841F48071FFF7D0FFF8D1DB
:1044500000F016F841F00101FFF7C9FFF8D100F0B4
:104460000FF841F04001FFF7C2FFF8D176BD216897
:1044700001F10C0050E8001F226802F10C037047A4
:10448000206800F1140151E8001F00F11403704787
:1044900010B500F00FF822F0C00200F007F8F8D1D4
:1044A000202180F8411010BD42F0400244E8002174
:1044B00000297047016801F10C0252E8002F01F158
:1044C0000C04704710B5FFF7F5FF22F49072FFF768
:1044D000EDFFF8D1FFF749FFFCD1016B012906D1AF
:1044E000FFF72CFF22F01002FFF7E0FFF8D12021A8
:1044F00080F842100022026310BD0000406A0021D3
:10450000C185C18400F091BC1CB590F842102229ED
:104510004FD18168826AB1F5805F0AD1016969B9BA
:1045200003685968C1F308011180826A911C816295
:104530000FE0002904BF0169002902D1036859680E
:1045400003E00168496801F07F011170816A4A1C2B
:104550008262C18D491EC18589B241BB0168CA68AA
:1045600022F02002CA600168CA6822F48072CA6020
:1045700001684A69520852004A61202180F84210BD
:1045800000224263016B01290FD1026300F013F88E
:1045900002681168CB0604D500240094FFF740FDA3
:1045A0000099818DFEF7B1FD01E000F040FC002094
:1045B00016BD022016BD016801F10C0252E8002F61
:1045C00001F10C0422F0100244E800210029F2D18C
:1045D000704710B5044622681169E06821F4405123
:1045E00001431161D3681B49A0680B402169034353
:1045F00060690B430343D3605169A06921F44071A2
:104600000143516114498A4202D100F0AEFB01E03E
:1046100000F0A3FB6268192148439200B0FBF2F15D
:104620006423B1FBF3F203FB121109013231B1FB38
:10463000F3F000F0F00101EB0211226800F00F002E
:104640004018906010BD0000D94200088543000862
:10465000A1430008F3E9FFFF00380140C2175040B2
:10466000801AB0FA80F10AD08840D1F19D01D207BA
:1046700042EAC151020672F1004241EB102070473C
:1046800010B5FF2313EAD0541DBF13EAD1529C4248
:104690009A4239E0A41ADA0780EA0103134042EA99
:1046A000012142EA0020421A3CBF641E01EB420293
:1046B000090AB2FBF1FE01FB1E221202B2FBF1F06D
:1046C00001FB10226EF30F201202B2FBF1FE4EEA44
:1046D00000207F3406DDFE2C24DA53EA500050EB34
:1046E000C45010BDD4F1020401FB1E2240F08071C1
:1046F000192C1DDC21FA04F0C4F12004A14011435F
:1047000071F10042584110BD9C421ABF03EAD152D8
:104710009A420FE080EA010E0EF00043400004D000
:10472000490016D143F0FF4010BD490008BFD343F4
:10473000180010BD9C4205D1D21AF7D001F00041FB
:10474000484010BD4A0212BF0846484000F00040F1
:1047500010BD4AB90902B1FA81F2914044B1A418DE
:10476000C00140F000409EE7C90141F000415242C3
:104770000002B0FA80F4A040141B94E74FF0807C54
:104780001CEB400F94BF1CEB410F05E040EA010C0D
:104790001CEB0C0F01D28142704718BF8842704752
:1047A000C0F3C7517E390EDDC217D1F1200106DDFD
:1047B000000240F00040C840104450407047D043D1
:1047C00080F000407047002070470000C0F3C751E0
:1047D00081B1FF2906D0C110400721F0E04101F16D
:1047E0006051704741020CBF40F4E0016FF000419E
:1047F0000020704700F0004100020AD0B0FA80FCAF
:1048000000FA0CF001F16051A1EB0C5101EBD02149
:1048100040057047C1F30A5340F2FE329B1A14DD83
:10482000D3F120034FEAE17208DDC90241EA505199
:1048300041F00040D84080185040704703F2E1300A
:1048400010B1D24382F00040704700207047000052
:104850004FF0807C1CEB400F94BF1CEB410F05E038
:1048600040EA010C1CEB0C0F01D28842704718BFC4
:104870008142704780B50748016841F0100101602E
:104880000320FEF73CFF0F2000F0D4FAFEF7BAFA3F
:10489000002002BD00200240002200F0EBBA000020
:1048A00070B500F13C031A78012A01D1022070BDD5
:1048B00001221A7002245C7005686E68AC680A6890
:1048C00026F0700616436E6002680B48824218BFDD
:1048D000B2F1804F05D0094882421CBF084DAA4260
:1048E00004D1486824F08004044394600121597085
:1048F0000020187070BD0000002C01400004004032
:10490000000800402DE9F843040016D02078DFF8B5
:104910007064C10713D5706800F00C00042807D03C
:10492000706800F00C00082841D17068C1033ED5C2
:104930003068810303D56068002800F06481207826
:10494000DFF84C74810719D5706810F00C0F07D090
:10495000706800F00C00082861D17068C1035ED453
:104960003068810703D52069012840F04C81316807
:10497000606921F0F80141EAC0013160217808073F
:1049800040F18180A069DFF80C14002800F0A680B7
:1049900001220A6000F088FA0546706A810763D434
:1049A00000F082FA401B0228F7D903202EE160684C
:1049B000B0F5803F04D1306840F48030306014E0BE
:1049C00008B930680AE0B0F5A02F306806D140F48D
:1049D00080203060316841F4803105E020F480307F
:1049E0003060316821F480213160606858B100F096
:1049F0005BFA054630688103A1D400F055FA401BEC
:104A00006528F7D3D1E700F04FFA054630688103F7
:104A100095D500F049FA401B6528F7D3C5E7206912
:104A2000A8B10121396000F03FFA054630688107DE
:104A300005D400F039FA401B0228F7D9B5E73068F1
:104A4000616920F0F80040EAC100306096E7386004
:104A500000F02AFA0546316888078FD500F024FA5D
:104A6000401B0228F7D9A0E7DFF818030168C9083E
:104A70004FF47A72B1FBF2F2009200BF0098411E2F
:104A800000280091F9D1207841076ED5F069002502
:104A9000C10009D4F06940F08050F0610125F0694F
:104AA00000F0805000900098DFF8EC82D8F8000009
:104AB000C10520D4D8F8000040F48070C8F8000088
:104AC00000F0F2F98146D8F80000C10513D400F0D7
:104AD000EBF9A0EB09006528F5D366E7086000F064
:104AE000E3F90546706A8107CDD500F0DDF9401B7A
:104AF0000228F7D959E7E068012808D008B9306AD8
:104B000009E00528306A06D140F004003062306ABE
:104B100040F0010005E0400840003062306A20F0BB
:104B20000400306241F28938E06860B100F0BCF9FD
:104B30008146306A810713D400F0B6F9A0EB090072
:104B40004045F6D331E700F0AFF98146306A81077E
:104B500006D500F0A9F9A0EB09004045F6D324E7FB
:104B60001DB1F06920F08050F061E06900284CD060
:104B7000716801F00C01082938D002282AD100F010
:104B800047F805463068810105D500F08DF9401BD6
:104B90000228F7D909E7206AB0F5803F05D171688E
:104BA000A06821F40031014371607268206A616A73
:104BB00022F4741202430A437260012000F029F8C3
:104BC00004463068810120D400F06EF9001B0228F1
:104BD000F7D9EAE600F01CF804463068810114D5E4
:104BE00000F062F9001B0228F7D9DEE601280AD09E
:104BF0007068226A00F48031914202BF00F47010A4
:104C0000616A884201D0012000E00020BDE8F28303
:104C10000020386600F048B92DE9F04104008846CC
:104C20004ED05E4E00F077F802D200F06FF847D118
:104C30002068534D810712D5400703D5696841F4B8
:104C4000E06169602078010703D5686840F460502E
:104C500068606968A06821F0F0010143696021780B
:104C6000C80725D56068012802D129688A0303E0B6
:104C70000228296802D18A0102D421E08A071FD5BF
:104C80006968890840EA8100686000F00DF907460C
:104C90006868616800F00C00B0EB810F08D000F08C
:104CA00003F9C01B41F289318842F1D303202BE084
:104CB000306800F00700804504D200F027F801D0EA
:104CC000012021E02078410705D56A68E06822F4D8
:104CD000E06202436A602178080706D569682069A6
:104CE00021F4605141EAC001696000F019F86A6876
:104CF0002B49244BC2F30312895CC8401860234837
:104D0000006800F097F80020BDE8F0813168C9081C
:104D100048EAC1013160306800F007004045704743
:104D2000204919480A6802F00C03082B00D070478C
:104D300010B500BF1EA4C2F38343D203E35C08D5C1
:104D4000096858431EA3C1F340415A5CB0FBF2F01E
:104D500010BD18461449484310BD0A48114A00685E
:104D600013681249C3F3022206E006480D4A0068A0
:104D700013680E49C3F3C222895CC8407047000023
:104D8000001002400C00002000127A0008000020F1
:104D90000000424280044242007000400020024075
:104DA000D85000080410024000093D0004510008DA
:104DB00002030405060708090A0B0C0D0E0F10105C
:104DC0000102000062F30F2262F31F42401810F04C
:104DD000030308D0C91A1FD3DB0748BF00F8012D11
:104DE00028BF20F8022D130030B4144615461039A0
:104DF00028BF20E93C00FAD8490728BF20E90C0069
:104E000048BF40F8042D890028BF20F8022D48BF74
:104E100000F8012D30BC7047C91818BF00F8012DEB
:104E2000CB0728BF00F8012D7047704770477047C7
:104E30007047000038B50D4D0D4B2A7804464FF4ED
:104E40007A711868B1FBF2F2B0FBF2F0FEF78CFC5D
:104E500050B9102C08D2002221464FF0FF30FEF747
:104E60005BFCAC60002032BD012032BD00000020A0
:104E70000C00002000B500BF130096469446103980
:104E800028BFA0E80C50FAD85FEA417C28BF0CC0CC
:104E900048BF40F8042BC90728BF20F8022B48BFA1
:104EA00000F8012B00BD000001484068704700BFBA
:104EB00000000020F0B4024610689568131850688E
:104EC00003EB5004C0071CD54D441AE013F8017BD6
:104ED00005F8017B491EF9D198B113F8011BC6F3FF
:104EE0008106032E08BF13F8016B01EB062149422E
:104EF000801C294405D011F8016B05F8016B401E98
:104F0000F9D1A3420ED013F8016B16F0030104BFD0
:104F100013F8011BC91C30090F28DBD113F8010B52
:104F20000F30D7E7F0BC02F10C00704700004129B8
:104F3000211C19171615141312121111111010102B
:104F40000F0F0F0F0E0E0E0E0E0E0E0D0D0D0D0D82
:104F50000D00000030313233343536373839616274
:104F6000636465666768696A6B6C6D6E6F70717299
:104F7000737475767778797A00000000000000007D
:104F80000000000000002440000000000000594024
:104F9000000000000088C3400000000084D7974153
:104FA0000080E03779C34143176E05B5B5B8934625
:104FB000F5F93FE9034F384D321D30F94877825AF1
:104FC0003CBF737FDD4F1575FEE7FEE7FEE7FEE7AA
:104FD000FEE770477047704700F010B80448FEF7CE
:104FE000A7BD0448FDF788BC0348FFF72CB80000B4
:104FF000FC000020B40000209C02002002494A6806
:10500000087882184A607047000000207363616E60
:10501000665F733A2062616420666C6F6174696ECA
:10502000672D706F696E7420617267756D656E743F
:105030000000000010B5074979441831064C7C4443
:10504000163404E00A68081D114488470146A1424D
:10505000F8D110BD2C000000480000007363616EA1
:10506000665F733A206261642025632C2025732CCF
:10507000206F7220255B20617267756D656E74000C
:1050800067BEFFFF580200009000002000000000F3
:1050900025FEFFFF180100007C000000000000203A
:1050A00000F00DF8002801D0FFF7C4FFAFF3008037
:1050B0000020AFF30080FEF72AF900F002F801208B
:1050C000704700F001B8000007463846FDF7AEFA19
:1050D000FBE7000070470000000000000000000037
:1050E00001020304060708090148804701480047F8
:1050F000D5500008F9500008AFF30080AFF30080EE
:10510000FFF7CEFF0000000001020304FFF7FEBF1F
:10511000FFF7FEBFFFF7FEBFFFF7FEBFFFF7FEBFC3
:10512000FFF7FEBFFFF7FEBFFFF7FEBFFFF7FEBFB3
:10513000FFF7FEBFFFF7FEBFFFF7FEBFFFF7FEBFA3
:10514000FFF7FEBFFFF7FEBFFFF7FEBFFFF7FEBF93
:10515000FFF7FEBFFFF7FEBFFFF7FEBFFFF7FEBF83
:10516000FFF7FEBFFFF7FEBFFFF7FEBFFFF7FEBF73
:10517000FFF7FEBFFFF7FEBFFFF7FEBFFFF7FEBF63
:10518000FFF7FEBFFFF7FEBFFFF7FEBFFFF7FEBF53
:10519000FFF7FEBFFFF7FEBFFFF7FEBFFFF7FEBF43
:1051A000FFF7FEBFFFF7FEBFFFF7FEBF43010001A1
:1051B000221008F0050724F4003E1A00080452FFEC
:1051C00001E3EA161420040000921700084C11486D
:1051D00022204B2002270F000808522108123D0808
:0A51E000122504525110E10161880C
:04000005080050F9A6
:00000001FF
