:020000040800F2
:10000000C0080020A5010008BB300008852E0008AC
:10001000B9300008911900081538000800000000E8
:10002000000000000000000000000000C9320008CD
:100030000B1B000800000000A5320008CB320008AE
:10004000BF010008BF010008BF010008BF01000890
:10005000BF010008BF010008BF010008BF01000880
:10006000BF010008BF010008BF010008BF01000870
:10007000BF010008D51A0008BF010008BF01000831
:10008000BF010008BF010008BF010008BF01000850
:10009000BF010008BF010008BF010008BF01000840
:1000A000BF01000831330008BF010008BF0100088C
:1000B000BF010008BF010008BF010008BF01000820
:1000C000BF010008BF010008BF010008BF01000810
:1000D000BF010008BF010008BF010008BF01000800
:1000E000BF010008BF010008BF01000800F002F8CE
:1000F00000F048F80AA090E8000C82448344AAF17A
:100100000107DA4501D100F03DF8AFF2090EBAE877
:100110000F0013F0010F18BFFB1A43F0010318473B
:10012000A0480000C0480000103A24BF78C878C139
:10013000FAD8520724BF30C830C144BF04680C60ED
:10014000704700000023002400250026103A28BF35
:1001500078C1FBD8520728BF30C148BF0B60704739
:100160001FB500F039FB04000020002103F0E4FC7F
:10017000401C60600020002103F0C8FCE0601FBD4F
:1001800010B510BD00F06AFD1146FFF7E9FF03F05E
:100190003FFC00F0C7FF03B4FFF7F2FF03BC01F020
:1001A0002DF800000948804709480047FEE7FEE7B0
:1001B000FEE7FEE7FEE7FEE7FEE7FEE7FEE7FEE717
:1001C00004480549054A064B704700002D330008D6
:1001D000ED000008C0020020C0080020C00400207C
:1001E000C00400200FB400B58DB010A90990009193
:1001F0000B904FF0FF300A9000200C900648784496
:100200000690064878446A4607900F9909A800F0BE
:10021000B3FA0DB05DF814FB97050000AF050000C0
:100220004FF0000200B5134694469646203922BF8F
:10023000A0E80C50A0E80C50B1F12001BFF4F7AFDA
:10024000090728BFA0E80C5048BF0CC05DF804EBBC
:10025000890028BF40F8042B08BF704748BF20F82A
:10026000022B11F0804F18BF00F8012B7047704728
:10027000704770472DE9FF4F06468BB00878FF287E
:1002800006D0491C2D2805D000244FF0000908E0B5
:1002900000200CE00124F8E709EB8903491C00EB7E
:1002A00043090878FF28F7D114B1C9F1000081464D
:1002B000107800252C46AA4629462D2801D02B2847
:1002C00004D1521C2D2813D0002082468B46107872
:1002D000FF280FD04FF0000C0A21521CA5FB01781B
:1002E00004FB018105FB0C11C5194BEB0104EEE782
:1002F0000120EAE7002108464FF00000BAF1000FA4
:1003000002D000EB80004008C0F38157012F01DDCF
:100310004FF0FF370E9955EA040009EB01080BD0A6
:100320004FF0020918F5FA7F16DA4FEACA70002F6B
:10033000706008DD012007E04FEACA70C6E900B02E
:100340000FB0BDE8F08F0020306000F049FAC0F82F
:1003500000901821084616E0B8F5FA7F18DD002F46
:1003600002DAF748784401E0F6487844D0E9001012
:10037000C6E9001040EACA70706000F031FAC0F8B7
:100380000090142108460FB0BDE8F04F04F011BAF8
:10039000002108464FF00000B8F10001099002DA90
:1003A000C7F1000200E03A4601DAC8F1000106A8F0
:1003B00000F0DEFB06AB93E8070003AB83E8070021
:1003C00044F23E005BEA04010090584604D144F236
:1003D0001E012C465D460091210C0904014306D103
:1003E0000099240444EA15442D041039009104F0C6
:1003F0007F41014306D10099240244EA15642D028D
:100400000839009104F07041014306D1009924019C
:1004100044EA15742D01091F009104F04041014385
:1004200006D10099A40044EA9574AD00891E00919C
:1004300004F00041084304D100986D196441401E46
:1004400000904FF001033A466846B8F1000FCDE93D
:10045000014503A902DD01F064F901E001F037F97B
:10046000BAF1000F04460D4601D084F0004400218B
:1004700008464FF00000099940F2FF77484010F01D
:100480000C0F07D124F00040284303D0C4F30A50D6
:10049000B84212D100F0A4F9C0F80090C4F30A5099
:1004A000B8420AD1A8487844D0E90010C6E9001043
:1004B00004F000410843706042E7C6E900543FE79A
:1004C0002DE9FF4F1F464FF0000A4FF0FF38454619
:1004D00091B0D7E90146CDF83CA000F07DF9C068A5
:1004E0000168405C1090B96912986D1C8847396AA0
:1004F000814688470028F6D1B9F1FF3F0AD0002E87
:1005000024F4D06411DDB9F12B0F08D0B9F12D0F0F
:100510000BD102E0404615B013E744F48064B9699A
:1005200012986D1C8847761E8146600504A901D586
:100530002D2000E02B20002E01F1010B0DF13008E1
:100540008DF810003FDDB9F1690F08D0B9F1490FFE
:1005500005D0B9F16E0F02D0B9F14E0F1CD13B4658
:1005600001A8009580E85002DDE912126FF0020048
:1005700004F0ACF9C11CCED10EE0B96912986D1C23
:10058000884781461398761E44F4007405600F98DE
:10059000401C002E0F9016DDB9F1300FEDD0B9F1EF
:1005A000780F02D0B9F1580F0DD10F9801280AD158
:1005B0003B46CDE90054DDE91212001F029604F01B
:1005C00083F9C11CA7D1109989453ED144F080041C
:1005D00006E01399681CAAF1010A44F4007408604B
:1005E000B9696D1C1298761E884730288146F0D074
:1005F0002BE01099894505D1200603D4761E44F0DE
:10060000800418E0484603F096F908B3761E0DF111
:1006100023018B4544F4007408D2A9F130000BF893
:10062000010B200607D5AAF1010003E0200602D441
:100630000AF101008246A00502D51399681C0860E2
:10064000B96912986D1C88478146002ED1DC53E0B1
:10065000002E51DDB9F1650F02D0B9F1450F4BD134
:10066000A00549D5B9696D1C1298761E24F4407412
:100670008847002E81460CDD2B2804D0B9F12D0FC0
:1006800007D144F48074B96912986D1C8847761EAE
:100690008146E00501D52D2100E02B2108F8011B42
:1006A000CDF8008021E0761E0DF13901884544F433
:1006B00000740CD2A9F1300010F0FF0088F800009F
:1006C00002D10099884509D908F1010806E0E00542
:1006D00001D51E4801E042F20F708246B9691298B6
:1006E0006D1C8847814613980560002E04DD48463E
:1006F00003F021F90028D6D1F96912988847FF2024
:1007000053468BF8000088F8000000200A900B90F8
:1007100004AA0CA90AA8FFF7ADFDA00502D46FF04A
:100720000100F8E614F0240F12D0E0071CD138685D
:10073000DDE90A12031D3B600068C0E9001213E006
:10074000804600007246000036450000F1D8FFFFE9
:100750000AA9684603F07EF8E00705D13868009AD8
:10076000011D3960006802602846D4E60268114421
:100770001378016018467047D1600549794451618A
:1007800004497944116200211161114600F036B824
:10079000EDFFFFFF63000000426842B1016811F8FD
:1007A000013B23B1521EC0E90012184670470121D7
:1007B000C160881E704742685AB1C368016843B976
:1007C00083688B4205D0491E521CC0E900120020EC
:1007D00070474FF0FF307047004870477C020020A0
:1007E000004870475C02002010B5044600F05CFA37
:1007F0000068005D00F0010010BD00002DE9F34F1E
:100800004FF0000A0C4656468DB001200C9001F1C5
:100810000C000B9062690B9801219047051E2DD0AA
:10082000252D2CD0216A8847C0B162690B9801211F
:100830009047216A88470028F7D16269411E0B98CA
:10084000904700E0761CA1690D988847216A884787
:100850000028F7D1E1690D988847DBE7A1690D9879
:100860008847A842074601D1761CD3E7E1690D9875
:1008700088477F1C02D1BAF1000F6FD06CE162692A
:100880000B9800273D46394690472A2804D16269D3
:100890000B98012190470125DFF8D08262690B98FF
:1008A00001219047A0F130010A290AD24745E5DC31
:1008B00007EB870100EB4107303FDFD445F010051F
:1008C000ECE7E90601D46FF000476C280AD04C2809
:1008D00014D0682815D06A280DD074281CD07A2826
:1008E0001AD01DE062690B98012190476C2802D054
:1008F00045F0040514E045F002050DE045F0200543
:100900000AE062690B9801219047682802D045F0FF
:10091000080505E045F4006562690B9801219047E0
:10092000C4E9015765283DD019DC58287AD00CDC81
:10093000452837D004DC252826D041289ED131E037
:1009400046282FD0472899D12CE05B2877D0612802
:1009500028D063287CD0642823D15AE0F7E06F28A0
:1009600048D008DC66281DD067281BD0692821D014
:100970006E2816D127E0702845D0732868D07528D6
:1009800047D078280DD14DE0A1690D9888472528DA
:1009900005463FF469AFE1690D9888476D1C3FF447
:1009A0006AAFD9E00D9923466A466FF0010003F063
:1009B00089FFC6E045F0400023464FF0000260602A
:1009C000A80736D43EE0E8077FF447AF2068011D52
:1009D00021600068290501D506701BE7290701D5AC
:1009E000068017E7A90703D5F117C0E9006111E7F1
:1009F00006600FE745F0400023464FF008026060B4
:100A0000A80716D41EE040F60E0125EA010060603A
:100A100016E045F0400023464FF00A026060A80748
:100A200007D40FE045F040006060A80708D52346D2
:100A300010220D996FF00100AFF3008081E007E014
:100A4000102223460D996FF00100AFF3008078E08B
:100A50004FF0000963284F46C8464B46CB4602D0AC
:100A60005B2807D039E02079C00601D40120A060BE
:100A7000012732E06269D4F80CB00B98012190474D
:100A80005E2807D14FF0010949466269D4F80CB0DD
:100A90000B989047216939B900210A4603AB43F806
:100AA0002120491C0829FADBD8B3216949B308F190
:100AB000010862690B98012190475D28F4D1B9F1D2
:100AC000000F09D0002003A951F82020D24341F89B
:100AD0002020401C0828F7DB03AB20690028207980
:100AE0004FEA40701ED05B462246CDF80080CDE92B
:100AF00001970D9900286FF0010020DAAFF3008014
:100B00001FE0C11703AA00EBD1614B1121F01F01B7
:100B100002EB8302411A13680120884003431360EB
:100B2000C7E719E00D99224600286FF001000097F1
:100B300002DAAFF3008004E0AFF3008001E0AFF32E
:100B4000008000280ADA401C06D10C9820B14FF032
:100B5000FF300FB0BDE8F08F5046FAE7E90701D14A
:100B60000AF1010A064400200C9053E6CCCCCC0CD0
:100B70002DE9F047814616468AB0354878440DC8BD
:100B80008DE80D0032487844801C03AC0DC884E821
:100B90000D0041F69B300844372190FBF1F290FBA9
:100BA000F1F5A5F1800501FB12041B3C02D564425E
:100BB000012000E00020DFF898A080460027FA44DA
:100BC000AAF1BE0A0EE0E0070AD03246684607EBFB
:100BD000470101230AEB810100F08EFD8DE807003B
:100BE00064107F1C002CEED1194F7F44AE3F19E0FA
:100BF000E80715D007EB04100DF1180A90E80E0075
:100C00008AE80E00C068F04201D198190890324677
:100C1000012306A903A800F06FFD03AB83E80700DA
:100C20006D10641C002DE3D14FF00103324669467C
:100C3000B8F1000F03A802D000F034FD01E000F08D
:100C40005BFDC9E90001C9F808200AB0BDE8F087DA
:100C5000283E0000004870475C0200207546FFF700
:100C6000F9FFAE4605006946534620F00700854669
:100C700018B020B5FFF7A4FABDE820404FF00006F9
:100C80004FF000074FF000084FF0000B21F0070174
:100C9000AC46ACE8C009ACE8C009ACE8C009ACE8B7
:100CA000C0098D467047000010B5FFF795FD001D87
:100CB00010BD00BF852E000010B5FFF791FD006844
:100CC00010BD10B50446FFF78BFD046010BD000099
:100CD0002DE9FF4F1F464FF03C0987B04FF000420F
:100CE000DDE9141001F10108DDF858A002EA4050D6
:100CF0000390002005908346054604460490B96998
:100D0000461E08988847AAF1010A0290BAF1000F1E
:100D10003BDD02982E2815D0102100F060FA002843
:100D20002EDB4FF0010B0599014317D0B9F1000FED
:100D30000BDB4A46C11700F03FFA05430C43A9F10B
:100D4000040905E0012004900BE008B145F001051D
:100D500001200590049820B9361D02E0049800B1E6
:100D6000361FB969089808F101088847BBF1000FE0
:100D7000AAF1010A0290C9D00999C1F80080C5E71B
:100D80000298702808D0502806D0F969089888473A
:100D9000BBF1000F14D04FE0002002900120BBF106
:100DA000000F049009D0B969089808F10108884734
:100DB000AAF10109B9F1000F07DCF9690898884721
:100DC0006FF001000BB0BDE8F08F2B2804D02D2868
:100DD0000CD14FF0FF300490B969089808F1010870
:100DE0008847A9F10109B9F1000FE6DD411CE4D003
:100DF0000A2100F0F4F90028DFDB029908F101086C
:100E000001EB810100EB41000290B9690898884725
:100E10000A2100F0E4F9099AA9F10109B9F1000FDA
:100E2000C2F8008001DD0028E7DAF96908988847F0
:100E30000499029800FB016655EA040004D004F00E
:100E40004041090002D006E0039898E0A40044EA7B
:100E50009574AD00B61E04F00041080002D16D1972
:100E60006441761E159810F0240F03D04FF00B0943
:100E70005C4803E04FF028096FF07D00824656453C
:100E800007DAAAEB06018944B9F1410F01DD4FF001
:100E9000410901200021A9F1010200F08DF902466B
:100EA00028400B462140084301D0012100E00021E9
:100EB000501E029143F1FF3128402140084301D0E8
:100EC000012000E000200299834651EA0B014FD037
:100ED000002108464FF00000039900F4400039B1AA
:100EE00000EB80004FF4400100EBD07001EA60009D
:100EF0008015012802DD4FF0FF3000E013D0401CC8
:100F000036D0029860B3BBF1000F0CD14A460120E5
:100F1000002100F051F928402140084301D0012070
:100F200000E00020E0B101204A46002100F044F931
:100F3000034640190A4661412D1A8C4111D3B9F17B
:100F4000400F09DD159810F0240F02D0AAF13406E5
:100F500003E0AAF1170600E0761C00254FF00044DC
:100F600006E05B1E42F1FF3220EA030521EA02049B
:100F7000CAF10100B04206DA1B4903980843019008
:100F8000002000900EE0039AC4F3D321E80A0A433C
:100F9000164940EA44500A433146CDE9000268460A
:100FA00002F0BEFC159810F0240F0BD01598C00766
:100FB00015D13868DDE90012031D3B600068C0E907
:100FC00000120CE002A8694602F044FC1598C00724
:100FD00005D13868029A011D3960006802604046F8
:100FE000F0E6000002FCFFFF0000F07F0000F03F91
:100FF0002DE9FF4F92461D4685B04FF00041DDE9D7
:10100000124BDDE914727F1E01EA4B50414940F05A
:10101000FF4940EA0108002122F0200049280491FC
:1010200002D04E2828D04CE03BA0012607C88DE80E
:101030000700A9690698641C88477F1E014606D4EC
:101040001DF8060018B121F0200181420BD0E9699A
:1010500006988847032E34D0082E32D06FF0010056
:1010600009B0BDE8F08F761C032E01D0082EE0D128
:10107000601CCAF80000DCE7A9690698641C884770
:101080007F1E2AD420F02000412826D1A969069885
:10109000641C88477F1E20D420F020004E281CD1DD
:1010A000A9690698641C88477F1E48F4002849F403
:1010B0008009CAF8004001D4282806D0E9690698BA
:1010C00088475FEACB7012D022E0A9690698641CB9
:1010D00088477F1E01D4002803DAE969069888470B
:1010E000BCE72928F1D1641CCAF80040E9E71BF0ED
:1010F000240F07D028680499031D2B600068C0E9FD
:10110000001805E02868021D2A600068C0F80090F9
:101110002046A5E70000F07F494E46494E49545904
:101120000000000010B50446AFF300802046BDE883
:101130001040FFF730B800004FF0013C50F8042B8E
:1011400051F8043B9A4221D1A2EB0C03934313EADA
:10115000CC1317D150F8042B51F8043B9A4215D107
:10116000A2EB0C03934313EACC130BD150F8042BDE
:1011700051F8043B9A4209D1A2EB0C03934313EAC2
:10118000CC13DBD04FF00000704700BFD01A01BA7B
:10119000B1FA81F101F0180122FA01F0CB40C1F15E
:1011A0002001DBB2C0B2C01A2CFA01F3D11A91436C
:1011B00011EAC311E6D17047B2F120030AD5C2F19A
:1011C000200301FA02F120FA03F300FA02F041EAE7
:1011D0000301704700FA03F14FF0000070473A280E
:1011E00000D2303820F02002412A01D3A2F137008A
:1011F000884201D34FF0FF307047000001491820AA
:10120000ABBEFEE726000200704720F07F4C80EA6C
:10121000030023F07F47ACEB070303F57C5300F09A
:10122000004003F1FF032DE980494FEA154B09B453
:101230004FEA144325EA0B4E24EA03480FF2042632
:1012400006EB132749083E785FEA320203FB066784
:10125000C7F5000707FB06F64FEA54374FEAD646B4
:1012600006F1020607FB066CCCF1005C4FEA1C4756
:101270002CEA074C07FB06F40CFB06F504EB1546BD
:101280004FEA961634BF00204FF000404FEAD137A6
:1012900006FB07FC4FEA1C4C0CFB0BF7D21B03FBB5
:1012A0000CF761EB07010CFB0EF7B0EB074072EB9C
:1012B00017420CFB08F734BFA2EB0742B2EB074220
:1012C00061EB17414FEA0C444FEA910706FB07FC1C
:1012D0004FEA1C4C0CFB0BF7B0EBC74072EB5732DC
:1012E00003FB0CF734BFA2EBC742B2EBC74261EB82
:1012F00057310CFB0EF7B0EBC70072EB57720CFBCB
:1013000008F734BFA2EBC702B2EBC70261EB57711B
:10131000039F4FEA816141EA921104EBCC044FEA4A
:10132000D1374FEA826206FB07FC42EA90124FEA8D
:1013300080604FEA1C4C0CFB0BF7D21B03FB0CF735
:1013400061EB07010CFB0EF7B0EB074072EB1742A5
:101350000CFB08F734BFA2EB0742B2EB074261EB8C
:1013600017414FEA8C554FEA910704EB9C2406FB8A
:1013700007FC4FEA1C4C0CFB0BF7B0EBC74072EBC1
:10138000573203FB0CF734BFA2EBC742B2EBC742A4
:1013900061EB57310CFB0EF7B0EBC70072EB5772E5
:1013A0000CFB08F734BFA2EBC702B2EBC70261EB3C
:1013B000577115EB4C254FEA816141EA92114FEAD2
:1013C00082624FEAD13742EA901206FB07FC44F1F1
:1013D00000044FEA80604FEA1C4C0CFB0BF7D21B59
:1013E00003FB0CF761EB07010CFB0EF7B0EB0740BA
:1013F00072EB17420CFB08F734BFA2EB0742B2EBCB
:10140000074261EB174115EB1C154FEA813141EAA8
:1014100092414FEA823242EA90424FEA80304FEAEC
:101420000C7644F1000448EA03434EEA0B484FF0BF
:10143000000EB2EB080C71EB030724BF624639467D
:101440004EEB0E0E4FF0000B0018524149414BEB92
:101450000B0BB2EB080C71EB03077BF1000B24BF05
:10146000624639464EEB0E0E4FF0000B001852410B
:1014700049414BEB0B0BB2EB080C71EB03077BF113
:10148000000B24BF624639464EEB0E0E51EA0207AE
:1014900018BF46F0010616EB0E7655F1000254F126
:1014A000000103D5BDE88901BDE80088BDE88901D8
:1014B000BDE80048B619524141EB0101A3F1010317
:1014C000704780807F7E7D7C7B7A797877767675B1
:1014D0007473727171706F6E6E6D6C6C6B6A6A6929
:1014E0006868676666656464636362616160605FC3
:1014F0005F5E5E5D5D5C5C5B5B5A5A59595858573C
:1015000057565655555554545353525252515150A3
:1015100050504F4F4F4E4E4D4D4D4C4C4C4B4B4BF6
:101520004A4A4A494949484848474747474646463C
:101530004545454444444443434343424242424177
:101540004141000046EA0646A3F570534FEA1646AD
:1015500046EA42564FEAD22242EA415210B54FEAD9
:10156000D121A3F1010300F02FF820F0004000F199
:10157000020C00F0004701EB00501146BCF5006F73
:1015800040EA070000D210BDBAF1000F0AD01CB526
:1015900003B44FF004004FF004014FF000000FBC03
:1015A000BDE810404FF00001BBF1010FB9BF044886
:1015B0004FF0FF310348002140EA070010BD00BF93
:1015C000FFFFEF7F0000F07F002B9C4630D47700B8
:1015D0002BD01CB54FEA370703B44FF010004FF083
:1015E0001001BAF1000F06D0BCF1000FDCBF40F0D3
:1015F000080040F008014FF000000FBCBDE81040AB
:101600000BF1010BBBF1010F08BF5FEA170722BF07
:1016100012F1010211F101014FF0004143F1000309
:1016200000F0004043EA00007047F9D35708D0E7C4
:1016300046EA064613F1400F4FEA16461FDD13F146
:10164000200FDFBF16430A46002120335B42BED085
:10165000C3F1200746EA064602FA07F74FEA1646A4
:1016600046EA0706C3F1200722FA03F201FA07F758
:1016700021FA03F14FF0000342EA0702A7E746EA26
:10168000020646EA06464FEA164646EA0106BCBF8F
:1016900046EA0646360C4FF000034FF000024FF0CA
:1016A000000194E72DE9804C9A46934670B491E886
:1016B000380007C831EA400C48BF34EA430C03D570
:1016C000FFF7A3FDFFF780FFF0BCBDE8008C2DE91C
:1016D000804C9A46934670B491E8380007C831EAC6
:1016E000400C48BF34EA430C03D5FFF78EFDFFF7EB
:1016F00029FFF0BCBDE8008C2DE9804C9A4693464A
:1017000070B491E8380007C810F0804F08BF13F09C
:10171000804F03D100F01AF8FFF756FFF0BCBDE888
:10172000008C2DE9804C9A46934670B491E83800BD
:1017300007C810F0804F08BF13F0804F03D100F0AE
:1017400005F8FFF7FFFEF0BCBDE8008C20F07F47F6
:1017500080EA030023F07F4C07EB0C03A3F57C53D6
:1017600000F00040A3F1FE0392F0000F00F0B38000
:1017700095F0000F00F077802DE901494FEA114004
:101780004FEA144621EA004800FB06FC24EA06471B
:1017900008FB06F607FB08F800FB07F718EB0648FE
:1017A0004CEB164C4FEA124B18EB07484FEA154624
:1017B0004CEB174022EA0B4E0BFB06FC25EA0647D2
:1017C0000EFB06F607FB0EFE0BFB07F71EEB064EA5
:1017D0004CEB164C4FF000061EEB074E4CEB174B34
:1017E00018EB0B0840F1000018EB0E0B58EB00084B
:1017F00040F100008F1A4FF000013CBFC943661B47
:1018000014BFB5EB040C00213CBFC943F61B4FEAE3
:1018100017444EEA8E0E27EA04454FEA1C4704FBA4
:1018200007622CEA074C05FB07F70CFB05F604FBE7
:101830000CFC16EB074642EB174216EB0C4642EB4C
:101840001C421BEB060658EB0202414146EA9E068B
:1018500001D5BDE80189B619524141EB0101A3F15F
:101860000103BDE801894FEA14454FEA114724EA14
:10187000054621EA074C05FB07F406FB07F70CFBBE
:1018800006F105FB0CFC11EB074144EB17444FEA52
:10189000124711EB0C4144EB1C4422EA074C05FBB8
:1018A00007F206FB07F70CFB06F605FB0CFC16EB34
:1018B000074642EB174216EB0C4642EB1C456A18F2
:1018C00054F1000148BF7047B619524141EB010184
:1018D000A3F10103704795F0000F37D04FEA114292
:1018E0004FEA144721EA024624EA074C02FB07F1BB
:1018F00006FB07F70CFB06F402FB0CFC14EB074499
:1019000041EB17414FEA154714EB0C4441EB1C41E6
:1019100025EA074C02FB07F506FB07F70CFB06F66A
:1019200002FB0CFC16EB074645EB174516EB0C4685
:1019300045EB1C42121951F1000148BF7047B6191E
:10194000524141EB0101A3F1010370474FEA1445F5
:101950004FEA114724EA054621EA074C05FB07F147
:1019600006FB07F70CFB06F24FF0000605FB0CFC2C
:1019700012EB074241EB174112EB0C4251EB1C41B9
:1019800048BF7047921841EB0101A3F10103704772
:10199000FEE7000070B50A4605461149104602F000
:1019A000C7FD04460121284602F066FF214602F0E9
:1019B0008BFE4FF0FF34214602F05EFF094D2946B1
:1019C00002F0B6FD294602F0D9FC214602F054FF90
:1019D000054902F0ADFDBDE87040044902F0A8BD24
:1019E000CDCC4C3EB81E053DC3F5484000007042CA
:1019F00070B50A4605461149104602F099FD0446A5
:101A00000121284602F038FF214602F04FFC4FF03A
:101A1000FF34214602F030FF094D294602F088FDCF
:101A2000294602F0ABFC214602F026FF054902F0F0
:101A30007FFDBDE87040044902F07ABDCDCC4C3E3C
:101A4000B81E053DC3F54840000070420B4810B574
:101A50000068406A0A4C60800A4900200860B4F9B6
:101A60000200C0EB0010800002F04AFD064902F0BF
:101A700085FC064902F082FC606010BD3401002044
:101A800000000020240400400080BB440AD7233C0F
:101A90000C4810B50068406A0B4C20804FF0804124
:101AA00000204862B4F90000C0EB0010800002F092
:101AB00027FD064902F062FC054902F05FFCA061C7
:101AC00010BD0000EC000020000000200080BB449E
:101AD0000AD7233C014800F01BB800001802002080
:101AE00030B590F840500124AC40C56B6C60046880
:101AF00063604368102B036803D099600068C2607C
:101B000030BD9A600068C16030BD704772B6FEE7B4
:101B10002DE9F05FC16B0C6801680B68D0F840C01C
:101B2000042202FA0CF2494DDFF824A1494E4A4F33
:101B3000DFF828B1DFF828E122422CD05A072AD555
:101B40000A68920603D40A6822F004020A60016857
:101B5000A94201D1042219E0514501D1402215E0EA
:101B6000B14202D14FF4806210E0B94202D14FF489
:101B700080420BE0594502D14FF4802206E07145C6
:101B800002D14FF4800201E04FF080622F49083902
:101B90004A60C16A3BE04FF0020808FA0CF818EA04
:101BA000040F4FF000094FF0010235D05FEA83784F
:101BB00032D50B689B0605D40B6823F00A030B6033
:101BC00080F821200168A94201D1022219E0514583
:101BD00001D1202215E0B14202D14FF4007210E091
:101BE000B94202D14FF400520BE0594502D14FF4F3
:101BF000003206E0714502D14FF4001201E04FF0CF
:101C00000072124908394A6080F82090816A0029E0
:101C10001AD0BDE8F05F0847082505FA0CF5254203
:101C200012D01B0710D50B6823F00E030B6090F841
:101C30004010C36B02FA01F15960826380F82120E1
:101C400080F82090016BE2E7BDE8F09F08000240B9
:101C50001C00024030000240440002405800024094
:101C60006C00024030B528B308C813491422194447
:101C7000B1FBF2F18900C163104981630221417710
:101C80001A6843F6F0718A43D0E900142143D0E981
:101C900002452C432143046921434469214384695B
:101CA00021431143196000214163012242770177EA
:101CB000084630BD012030BDF8FFFDBF00000240E6
:101CC00070B5044690F82000002501280CD00120B2
:101CD00084F8200094F821600020012E06D084F8BA
:101CE00020000225284670BD022070BD022684F81F
:101CF0002160A0632068066826F001060660204681
:101D0000FFF7EEFEE06A00282068016802D041F08B
:101D10000E0106E021F0040101602068016841F035
:101D20000A0101602068016841F001010160D9E702
:101D30002DE9F84FDFF8B8910024A9F1040B2346F0
:101D40000F2709F1040AABF1040EC9E00125A540F3
:101D50002A40AA427DD1674ED1F804C0ACEB0608F8
:101D6000B44532D014DCBCF1030F3AD009DCBCF12D
:101D7000000F2AD0BCF1010F1CD0BCF1020F31D1F1
:101D80001DE0BCF1110F17D0BCF1120F2AD119E0E0
:101D9000B8F5881F19D006DCB8F5803F15D0B8F526
:101DA000801F1FD111E0B8F5001F0ED0B8F5041F39
:101DB00018D10AE0CB6815E0CB681B1D12E0CB6898
:101DC00008330FE0CB680C330CE08B682BB1012B90
:101DD0004FF0080303D0456104E0042302E00561ED
:101DE00000E00023FF2A01D8064601E000F10406C6
:101DF0004FEA840501D9A5F12005D6F8008007FA3D
:101E000005FC28EA0C0803FA05F548EA0508C6F8B7
:101E100000804D68ED0062D5374DAE6946F0010691
:101E2000AE61AD6924F0030605F001050095334D60
:101E300006EB050CDCF80850A607360F07FA06F883
:101E400025EA0805DFF8B880404503D14FF00008C7
:101E500017E044E0DFF8AC80404502D14FF00108C4
:101E60000FE0DFF8A480404502D14FF0020808E0FF
:101E7000DFF89880404502D14FF0030801E04FF0B1
:101E8000040808FA06F848EA0508CCF808804D6806
:101E9000D9F80060ED024D4601D5164300E09643A7
:101EA0002E604D68DAF80060AD02554601D5164344
:101EB00000E096432E604D68DBF80060AD035D46A0
:101EC00001D5164300E096432E604D68DEF80060B1
:101ED000ED03754601D5164300E096432E60641C61
:101EE0000D682A46E5407FF431AFBDE8F88F000069
:101EF00008040140000011100010024000000140E1
:101F000000080140000C0140001001400014014095
:101F10000AB1016170470904FBE7000001488068CD
:101F200070470000280000200248816802781144B0
:101F30008160704728000020074810B5016841F013
:101F400010010160032000F075F80F2000F006F882
:101F500000F024F8002010BD0020024070B50D4DA7
:101F600004464FF47A712878B1FBF0F00A49096809
:101F7000B1FBF0F000F0DCFA48B9102C07D20022D7
:101F80002146501E00F036F800206C6070BD012024
:101F900070BD000028000020340000200C4808B567
:101FA000816941F001018161816901F001010091C4
:101FB000C16941F08051C161C06900F0805000905A
:101FC0000448416821F0E06141F00071416008BDC2
:101FD0000010024000000140002809DB00F01F0251
:101FE000012191404009800000F1E020C0F800117B
:101FF00070470000F0B40E4B1B680C46C3F302237D
:10200000C3F10705042D00D90425191D072901D2A4
:10201000002300E0DB1E012606FA05F1491E2140DF
:1020200099409E40761E16403143F0BC01F0F3BB50
:102030000CED00E0064900F0070208684FF6FF03C8
:10204000184040EA0220034A10430860704700002D
:102050000CED00E00000FA052DE9F0470F46050001
:1020600061D0434E306800F00700B84209D23068B2
:1020700020F0070038433060306800F00700B842B5
:1020800051D128683B4C810712D5400703D56068C1
:1020900040F4E06060602878000703D5606840F491
:1020A000605060606068A96820F0F00008436060DC
:1020B0002878C00728D06868012810D02168022835
:1020C00010D0890700292EDA616821F0030101434D
:1020D0006160FFF723FF804641F288390DE02168F7
:1020E0008903EFE78901EDE7FFF718FFA0EB08018F
:1020F000494502D90320BDE8F0876068696800F0AF
:102100000C00B0EB810FEFD1306800F00700B8424F
:102110000BD9306820F0070038433060306800F099
:102120000700B84201D00120E5E72878400705D52F
:102130006068E96820F4E060084360602878000780
:1021400006D56068296920F4605040EAC1006060EB
:1021500000F038F86168084AC1F30311515CC840C7
:102160000649086006480068FFF7F8FE0020C2E74D
:1021700000200240001002401249000834000020F4
:102180002C0000200448054900684968044AC1F34E
:102190000221515CC840704734000020001002400A
:1021A000224900080448054900684968044AC1F307
:1021B000C221515CC840704734000020001002402A
:1021C000224900080E4A51680E4801F00C03042B06
:1021D00011D0082B0FD10C48C1F38343C903C05C55
:1021E0000AD55168084AC1F34041921E515C054A24
:1021F0005043B0FBF1F0704704494843704700007A
:102200000010024000127A000249000800093D0057
:102210002DE9F84F040070D02078C04DC00749D098
:102220006868C0F38100012807D06868C0F38100A6
:10223000022809D16868C00306D52868800339D50B
:1022400060680028E7D035E06068B0F5803F0BD0CB
:1022500010B1B0F5A02F11D0286820F4803028608C
:10226000286820F4802002E0286840F4803028604C
:10227000606890B1FFF752FE06460AE0286840F415
:1022800080202860F0E700BFFFF748FE801B64282D
:1022900073D828688003F7D50CE0FFF73FFE0646A9
:1022A00005E000BFFFF73AFE801B6428F0D82868DD
:1022B0008003F7D420789A4E80074FF001094FF041
:1022C000000839D5686810F00C0F07D06868C0F3B3
:1022D0008100022809D16868C00306D428688007F5
:1022E00014D52069012808D110E02069B0B1C6F8E2
:1022F0000090FFF713FE074605E00AE1FFF70EFE28
:10230000C01B0228C4D828688007F7D528686169EF
:1023100020F0F80040EAC10028600DE0C6F8008017
:10232000FFF7FCFD074604E0FFF7F8FDC01B02289D
:1023300023D828688007F7D4207800072CD579485F
:10234000A169D9B1C0F80090FFF7E8FD074604E0A5
:10235000FFF7E4FDC01B02280FD8686A8007F7D595
:1023600071484FF4FA510068B0FBF1F0009000BFE3
:102370000098411E0091FAD20EE080E0C0F8008083
:10238000FFF7CCFD074604E0FFF7C8FDC01B02289D
:1023900075D8686A8007F7D42078400760D5E86967
:1023A0000027C00008D4E86940F08050E861E8697F
:1023B000012700F0805000905C480168C90513D4E3
:1023C0000168834641F480710160FFF7A7FD8246F2
:1023D00006E000BFFFF7A2FDA0EB0A0064284ED87C
:1023E000DBF80000C005F5D5E06801280AD008B187
:1023F000052813D0286A20F001002862286A20F0FE
:10240000040002E0286A40F001002862E06841F21E
:10241000883B98B1FFF782FD82460BE0286A40F0C6
:1024200004002862EEE700BFFFF778FDA0EB0A0189
:1024300059455AD8286A8007F6D50CE0FFF76EFD9B
:10244000824605E0FFF76AFDA0EB0A0159454CD82A
:10245000286A8007F6D41FB1E86920F08050E8614F
:10246000E06988B36968C1F38101022944D0022878
:10247000C6F8608004D0FFF751FD044638E034E030
:10248000FFF74CFD074604E0FFF748FDC01B02289C
:102490002BD828688001F7D4206AB0F5803F05D199
:1024A0006868A16820F4003008436860D4E9080136
:1024B0000843696821F4741108436860C6F86090A5
:1024C000FFF72CFD044606E025E000BFFFF726FDE0
:1024D000001B022809D828688001F7D51BE000BF3F
:1024E000FFF71CFD001B022802D90320BDE8F88F6E
:1024F00028688001F4D40EE00128F7D06868226AC9
:1025000000F48031914204D1616A00F47010884275
:1025100001D00120EAE70020E8E7000000100240B7
:10252000000042428004424234000020007000401B
:1025300010B5401EB0F1807F01D3012010BD4FF0D7
:10254000E02460610F21601701F065F90020A061AF
:1025500007202061002010BD7047704770B590F8CB
:102560003C20012A26D0012480F83C40022280F839
:102570003D2003685A689D6822F070060A6832435D
:102580005A600D4B02689A4208D0B2F1804F05D0D4
:102590000A4B9A4202D00A4B9A4204D1496825F06C
:1025A00080031943916080F83D40002180F83C1081
:1025B000084670BD022070BD002C014000040040A0
:1025C0000008004010B5040003D094F83D0010B19D
:1025D00007E0012010BD002084F83C00204600F0F8
:1025E0001FF8022084F83D00211D206800F0A6FE9F
:1025F000012084F8460084F83E0084F83F0084F807
:10260000400084F8410084F8420084F8430084F8D4
:10261000440084F8450084F83D00002010BD00000F
:1026200008B500680B49884212D10B48816941F412
:10263000006181618069002200F400600090012146
:102640001920FFF7D7FCBDE808401920FFF7C4BCEC
:1026500008BD0000002C01400010024090F83D1021
:10266000012901D001207047022180F83D10016846
:10267000CA6842F00102CA6000680B49884208D06B
:10268000B0F1804F05D00949884202D008498842FC
:1026900004D1816801F00701062903D0016841F0E7
:1026A0000101016000207047002C0140000400403F
:1026B0000008004070B5044690F83C000025012851
:1026C00017D0012684F83C60022084F83D00206881
:1026D000826822F0770222F47F42826008685028E4
:1026E00038D00DDC20284FD005DC90B3102811D154
:1026F0004AE0022070BD302846D040280AD13BE095
:1027000060282FD070280DD0B0F5805F03D0B0F5D1
:10271000005F12D0012584F83D60002084F83C0061
:10272000284670BDCB68D1E90121206800F049FE40
:102730002068816841F0770109E0CB68D1E9012187
:10274000206800F03EFE2068816841F4804181608D
:10275000E1E719E0CA684968206800F0E7FE502107
:10276000206806E0CA684968206800F0F0FE602131
:10277000206800F030FECEE7CA684968206800F0A3
:10278000D5FE40212068F4E7226801461046F0E7B4
:102790002DE9F0410D46040003D094F83D0018B136
:1027A00008E00120BDE8F081002084F83C002046CC
:1027B00000F040F8022084F83D002068816844F26F
:1027C000070291438160211D206800F0B7FD226857
:1027D00090689169166A2B68AF69034340F2033031
:1027E000814341EA0721A868EF6908434FF6FC419D
:1027F0008843E96840EA0720014328692F6A0001FD
:1028000040EA0730084369686D6926F0220646EA07
:102810000515294393602268906154F8460B0162C4
:10282000012004F81F09E0752076E0762077A07576
:102830000020B7E710B586B0002100910191029108
:1028400003910368194901221948B3F1804F1AD046
:10285000184CA34215D1CB6943F00203CB61CB697D
:1028600003F0020304938B6943F004038B618969CD
:1028700001F004010491C021009102926946FFF722
:1028800057FA06B010BDCB6943F00103CB61CB69A9
:1028900003F0010304938B6943F004038B6189699E
:1028A00001F0040104910321E6E70000001002405A
:1028B000000801400004004070B590F83E600446F6
:1028C00090F83F5090F8423090F84320022021B118
:1028D00004290ED0012E1BD114E0012E18D1012B9A
:1028E00016D184F83E0084F84200012200212068BD
:1028F00020E0012D0CD1012A0AD184F83F0084F890
:10290000430014E0012D03D1012B01D1012A01D094
:10291000012070BD84F83E0084F83F0084F8420036
:1029200084F8430001220021206800F03DFD0122CF
:102930000421206800F038FD2068016841F00101A1
:102940000160002070BD704770B5044600680169E1
:102950004FF00005C943890715D4C168C9438907E9
:1029600011D4E91E01610120207720688069800769
:10297000204602D0FFF7E7FF04E000F0BFF8204652
:1029800000F064F9257720680169C943490717D425
:10299000C168C943490713D46FF0040101610220E3
:1029A00020772068806910F4407F204602D0FFF72E
:1029B000CAFF04E000F0A2F8204600F047F92577AE
:1029C00020680169C943090716D4C168C9430907CA
:1029D00012D46FF008010161042020772068C069DB
:1029E0008007204602D0FFF7AEFF04E000F086F833
:1029F000204600F02BF9257720680169C943C906F4
:102A000017D4C168C943C90613D46FF0100101611E
:102A1000082020772068C06910F4407F204602D04B
:102A2000FFF791FF04E000F069F8204600F00EF98E
:102A3000257720680169C943C90708D1C168C9431E
:102A4000C90704D1891E0161204600F04FF92068B2
:102A50000169C943090609D4C168C943090605D4F7
:102A60006FF0800101612046FFF776FD2068016963
:102A7000C943490609D4C168C943490605D46FF062
:102A800040010161204600F067F920680169C943EF
:102A900089060BD4C168C943890607D46FF02001A9
:102AA00001612046BDE87040FFF757BD70BD0000D2
:102AB00000B585B000210091019102910391006859
:102AC0000B49884212D10B48816941F008018161AC
:102AD0008069694600F008000490C0200090022040
:102AE0000190032003900448FFF722F905B000BDD0
:102AF0000008004000100240000C0140704770B513
:102B0000044690F83C0000260D4601280FD0012015
:102B100084F83C006AB1042A1DD0082A2FD00C2A60
:102B20003FD00126002084F83C00304670BD0220D2
:102B300070BD206800F058FC2068816941F00801F0
:102B400081612068816921F00401816120688169C7
:102B50002A69114311E0206800F06EFC2068816949
:102B600041F4006181612068816921F480618161A3
:102B7000206881692A6941EA02218161D2E72068DF
:102B800000F086FC2068C16941F00801C16120683D
:102B9000C16921F00401C1612068C1692A6911433A
:102BA00011E0206800F0A0FC2068C16941F40061D8
:102BB000C1612068C16921F48061C1612068C16977
:102BC0002A6941EA0221C161ACE710B5040003D0D3
:102BD00094F83D0010B107E0012010BD002084F8FA
:102BE0003C00204600F01EF8022084F83D00211D24
:102BF000206800F0A3FB012084F8460084F83E0022
:102C000084F83F0084F8400084F8410084F84200D2
:102C100084F8430084F8440084F8450084F83D00BB
:102C2000002010BD08B500680649884208D1064852
:102C3000C16941F00401C161C06900F00400009065
:102C400008BD00000008004000100240704700006E
:102C500010B50446022249B104290ED0082913D028
:102C600094F84100012816D0012010BD94F83E00D0
:102C70000128F9D184F83E200FE094F83F000128A4
:102C8000F2D184F83F2008E094F840000128EBD10D
:102C900084F8402001E084F841200122206800F0FF
:102CA00083FB0F492068884203D1426C42F4004202
:102CB00042642068884208D0B0F1804F05D00949AD
:102CC000884202D00849884204D1816801F0070196
:102CD000062903D0016841F001010160002010BD08
:102CE000002C0140000400400008004070B5184965
:102CF0000068096888422AD100F0D6FA154CD4E958
:102D00000201FEF775FE124E6C3EF060D4E902013E
:102D1000FEF740FE06F12405E860FEF7B9FE3062DA
:102D2000FEF794FE28623046326AF16800F0C6F978
:102D3000206128462A6AE96800F0ECF960612069A0
:102D400000F014FA6069BDE8704000F05DBA70BD33
:102D5000A40000200000002070477047704770B545
:102D6000040004D094F84100002510B106E00120D1
:102D700070BD84F84050204600F024F8242084F8E8
:102D800041002068C16821F40051C160204600F074
:102D90009DFC2068016921F490410161206841692E
:102DA00021F02A0141612068C16841F40051C160ED
:102DB0006564202084F8410084F8420065630020A7
:102DC00070BD000070B586B00025064600950195DF
:102DD0000295039500681E49884237D11D49C8698C
:102DE00040F48020C861C86900F48020049088699C
:102DF00040F0080088618869174C00F008000490D2
:102E00000815009002200190032003906946204697
:102E1000FEF78EFFE014CDE90005694620460295D5
:102E2000FEF786FF0E4C0D48C4E900058020C4E97A
:102E3000025020202561C4E905502046E561FEF7D7
:102E400011FF08B1FEF762FEF463666206B070BD62
:102E50000048004000100240000C014030000240D9
:102E60001802002090F84230202B01D00220704739
:102E700021B11AB10023036300F084BC0120704724
:102E800070477047FEE7000030B585B00020009025
:102E90000190029003901648816941F02001816100
:102EA000816901F020010491816941F0040181618F
:102EB000816901F004010491816941F00801816197
:102EC00080690C4D00F008004FF4706404900122FA
:102ED00021462846FFF71CF801210320CDE9021006
:102EE000CDE9004169462846FEF722FF05B030BD16
:102EF000001002400008014010B586B000241848B8
:102F0000009401940294039404941449059401607C
:102F100040F26711C0E9011440F2CF71C0E9031417
:102F200044618461FFF74EFB08B172B6FEE74FF4CF
:102F30008050009069460A48FFF7BCFB08B172B6A2
:102F4000FEE7049404A906480594FFF707FB002850
:102F500001D072B6FEE706B010BD0000002C0140A3
:102F6000A400002010B58CB024216846FDF758F964
:102F70000024154809944FF080410A94C0E90014D8
:102F80004FF6FF71C0E90241046184610320CDE97D
:102F900000040120CDE902040494CDE90540079422
:102FA000694609480894FFF7F3FB08B172B6FEE7DB
:102FB000099409A904480A94FFF7D0FA002801D01F
:102FC00072B6FEE70CB010BDEC00002010B58CB05E
:102FD00024216846FDF724F9002416480994144971
:102FE0000A94C0E900144FF6FF71C0E90241046180
:102FF00084610320CDE900040120CDE9020404949A
:10300000CDE90540079469460A480894FFF7C0FBDC
:1030100008B172B6FEE7099409A906480A94FFF7B9
:103020009DFA002801D072B6FEE70CB010BD00007A
:10303000000400403401002010B58AB00024079439
:103040001C2168460894FDF7EBF81A4818490160FE
:103050004721C0E9011440F2E731C0E9031484615B
:10306000FFF7B3FD08B172B6FEE7079407A9114850
:103070000894FFF773FA08B172B6FEE76020CDE955
:1030800000040294002269460A480494FFF737FDC1
:1030900008B172B6FEE7042269460648FFF72FFD25
:1030A00008B172B6FEE70348FFF702FD0AB010BD93
:1030B000000800407C010020FEE7FEE72DE9F0411A
:1030C0000B4604461146184601F0FEFA05462061FB
:1030D0002946A06901F0EAF8A06106462846616920
:1030E00001F0F2FA0146E061A06801F021FA07461A
:1030F0003146606801F01CFA06462946206801F056
:1031000017FA314601F0D2F8394601F0CFF865617F
:10311000BDE8F0812DE9F0410B4604461146184602
:1031200001F0D2FA054620612946A06901F0BEF8F7
:10313000A06106462846616901F0C6FA0146E061D1
:10314000A06801F0F5F907463146606801F0F0F932
:1031500006462946206801F0EBF9314601F0A6F851
:10316000394601F0A3F86561BDE8F0812DE9F0472B
:10317000214DDFF888806F15DFF8849004464FF406
:103180008076B0F5000F17DB002231462846FEF7A7
:10319000BFFE012239462846FEF7BAFE204601F05E
:1031A00059F80022434600F023FD00224B4600F070
:1031B0001DFF00F0B1FE80B214F1FF4F17D30122C2
:1031C00031462846FEF7A4FE002239462846FEF77F
:1031D0009FFE204601F03EF80022434600F008FD25
:1031E00000224B4600F002FF00F096FE80B2054937
:1031F00009684863BDE8F0870008014000005940B5
:1032000000408F407C0100202DE9F047214DDFF880
:103210008880EF14DFF8849004464FF48066B0F5A0
:10322000000F17DB002231462846FEF771FE01220F
:1032300039462846FEF76CFE204601F00BF80022C6
:10324000434600F0D5FC00224B4600F0CFFE00F0D4
:1032500063FE80B214F1FF4F17D301223146284696
:10326000FEF756FE002239462846FEF751FE20465C
:1032700000F0F0FF0022434600F0BAFC00224B466B
:1032800000F0B4FE00F048FE80B20549096888638A
:10329000BDE8F087000801400000594000408F4021
:1032A0007C01002070470000034B1A1F03A102F1AC
:1032B0001400FCF797BF00000C00002056252E31AB
:1032C000662C54252E3166007047FEF72DBE30B5B2
:1032D0008FB028216846FCF7A3FF14210AA8FCF749
:1032E0009FFF01210804CDE900100024029402256B
:1032F0000491CDE907504FF4E01009906846FEF7BD
:1033000087FF08B172B6FEE70F20CDE90A054FF43A
:103310008060CDE90C4002210AA80E94FEF79CFEC5
:10332000002801D072B6FEE70FB030BD7047000034
:103330000148FFF709BB0000A4000020F0B50268B7
:10334000164B174C174D4FF08047984205D0B842A6
:1033500003D0A04201D0A84203D122F070064A68EF
:103360003243984205D0B84203D0A04201D0A842CF
:1033700003D122F44074CA6822434C6922F08002CF
:10338000224302608A68C2620A688262984201D15E
:103390000969016301214161F0BD0000002C014079
:1033A000000400400008004010B501F01F03012197
:1033B000046A99408C430462016A9A401143016295
:1033C00010BD10B5846842EA032224F47F440A4306
:1033D0002243826010BD826822F070020A4342F0EC
:1033E000070181607047000030B5036A026A22F06D
:1033F000010202624268846924F073050C682C4360
:1034000023F002058B682B430A4DA8420BD123F011
:103410000805CB6822F440722B434D6923F0040366
:1034200015438A692A4342608461496841630362A3
:1034300030BD0000002C014030B5026A036A23F061
:1034400010030362436884690D6824F4E64444EA87
:1034500005248D6822F0200242EA05120B4DA84295
:103460000ED1CD6822F0800242EA05124D6923F4A4
:10347000406343EA85038D6922F0400243EA8503F5
:103480004360846149688163026230BD002C014061
:1034900030B5036A026A22F4807202624268C4692B
:1034A00023F4007324F073050C682C438D6843EA01
:1034B00005230C4DA8420ED1CD6823F4006343EAE6
:1034C00005234D6922F4405242EA05128D6923F426
:1034D000806342EA05124260C4614968C1630362C5
:1034E00030BD0000002C014030B5046A026A22F4AD
:1034F000805202624268C3690D6823F4E64343EADE
:1035000005238D6824F4005444EA0534064DA8428E
:1035100004D14D6922F4804242EA85124260C361BF
:1035200049680164046230BD002C014010B5036A93
:10353000046A24F001040462846924F0F00444EA7B
:10354000021423F00A020A438461026210BD10B51E
:10355000036A046A24F010040462846923F0A0035F
:1035600024F4704444EA023243EA011182610162A8
:1035700010BD70B5446A2068406994F84110C0F3EA
:10358000C0100025212904D118B1E584204600F09F
:103590008EF82068406994F84210C0F38010222908
:1035A00004D118B1E585204600F05AF8606C40F06F
:1035B000100060642046FFF7D1FB70BD10B50146D6
:1035C000406A096809684FF0000289062ED4C28556
:1035D00001680C3151E8003F23F4807341E8003466
:1035E000002CF5D10168143151E8003F23F00103AC
:1035F00041E80034002CF5D10168143151E8003F56
:1036000023F0400341E80034002CF5D1202180F85C
:103610004210016B012909D101680C3151E8003FCA
:1036200023F0100341E80034002CF5D14263016B14
:10363000012902D0FFF724FC10BD818DFFF78DFB1F
:1036400010BD10B5406A01214163016B012902D010
:10365000FFF717FC10BD818D4908FFF77EFB10BDF9
:1036600001680C3151E8002F22F4907241E80023E8
:10367000002BF5D10168143151E8002F22F001022E
:1036800041E80023002BF5D1016B012909D1016824
:103690000C3151E8002F22F0100241E80023002BEA
:1036A000F5D1202180F842100021016370470168A4
:1036B0000C3151E8002F22F0C00241E80023002B1A
:1036C000F5D1202180F841107047000070B5044604
:1036D00000680169E26821F44051114301612169E8
:1036E000A0680843616908432168CA6841F20C6315
:1036F0009A430243CA6020684169A26921F440717B
:10370000114341611E492068884202D1FEF74AFDFB
:1037100001E0FEF737FD00EBC00101EB001260682D
:1037200064218000B2FBF0F3B3FBF1F36FF01806F5
:103730007343B2FBF0F5B2FBF0F605EB83053223E1
:1037400003EB0515B5FBF1F5B6FBF1F605F0F00559
:1037500005EB0615B2FBF0F6B2FBF0F0B0FBF1F0B2
:103760006FF01802504306EB800003EB0010B0FB33
:10377000F1F0216800F00F002844886070BD00005F
:103780000038014038B58162044682850020134626
:103790006064222284F84220E56B1B4AAA62E56B32
:1037A0001A4AEA62E56B1A4A2A63E26B50630A46D8
:1037B0002168E06B091DFEF783FA20680168406804
:1037C0000090206948B120680C3050E8001F41F497
:1037D000807140E80012002AF5D12068143050E8CA
:1037E000001F41F0010140E80012002AF5D12068D5
:1037F000143050E8001F41F0400140E80012002A58
:10380000F5D1002038BD0000BD3500084336000862
:1038100073350008FEE70907090E002804DB00F1F4
:10382000E02080F80014704700F00F0000F1E02065
:1038300080F8141D704740F2013200204FF0E04143
:1038400000F0ECBF024A0020110700F0E7BF0000C3
:1038500001FDFFFF10B50446D1E9000100F002F8B8
:10386000206010BDF8B504460D466A4600F06AF8BF
:1038700000987E30009000281EDC0022134620466F
:10388000294600F00DFB17D0002140F608004FF04C
:10389000000006462046294600F064F9044640F63A
:1038A000080006EA00014FF0000034F0004004BFB9
:1038B0000220FDF706FA29E00098FF2828DB002106
:1038C00008464FF0000000F4400600221346204650
:1038D000294600F089FC8CBF002501250220FDF758
:1038E000F0F94FF0FF4446B1002D0CBF4FF400003B
:1038F0004FF48000B04218BF084C042108464FF036
:103900000000002D04BF84F00040F8BD2046F8BD43
:1039100020462946BDE8F84000F024B9FFFF7F7F2C
:1039200010B504460A46D4E90003194600F036F8FB
:10393000C4E9000110BD30380A2801D201207047C7
:103940000020704710B5144600222260114A21F071
:1039500000439342A8BF10BD53EA000208BF10BD48
:10396000B3F5801FA8BF226807DA362200F056FFA1
:103970006FF0350221F000432260DFF81CC06FF3C6
:103980001E510CEB23531A4441F0FF5141F00051FA
:10399000226010BD0000F07F02FCFFFF2DE9F04126
:1039A00006460C4640F2FF75174635EA14502BD0F8
:1039B00000221346304600F073FA25D03A463046CE
:1039C000214600F02BFF06460C4635EA145010D075
:1039D00000221346304600F063FA15D10220FDF7AD
:1039E00070F9FFF72FFF0A46214662F31E01BDE87A
:1039F000F0810220FDF765F9FFF71DFF0A46214619
:103A000062F31E01BDE8F08130462146BDE8F08139
:103A1000374808B53549384A02C03649002416C02F
:103A2000364B40F810498461C4613148243008C0E5
:103A300016C040F810498461C4612D48483008C060
:103A400016C040F810498461C461FEF775FAFFF7AB
:103A50003EFCFFF719FA2A48416941F00101416132
:103A60004069002200F00100009011460D20FEF791
:103A7000C1FA0D20FEF7B0FAFFF774FAFFF7A6FAC5
:103A8000FFF7DAFAFFF738FA1F481E4901604FF4D2
:103A9000E131C0E901140C21C460C0E90441846132
:103AA000C461FFF75CF908B172B6FEE710486C30EC
:103AB000FEF7D4FD14490A2248311348FFF7D2F922
:103AC000114800214838FFF7C3F80F48042148384F
:103AD000FFF7BEF80C4804219038FEF7EDFE0448CD
:103AE0000421B430FEF7E8FEFEE700006666A63F5C
:103AF000380000208FC2F53C8FC2753D3333B33F91
:103B00000010024000480040C401002010B5002908
:103B10000AD00878002807D005487844FDF70CFB48
:103B2000002801D0002010BD0248784410BD0000DC
:103B3000D60E0000CE0E000010B500290AD008787D
:103B4000002807D005487844FDF7F6FA002801D090
:103B5000002010BD0248784410BD0000C60E0000D1
:103B6000BE0E000021F00042A2F16052B2F5801FAB
:103B700001F0004328BFD2F17F6C0BD95FEA001C33
:103B800043EAC20242EB507018BF704728BF20F0D2
:103B900001007047B2F5801FBCBF184670474FEA5E
:103BA000410C1CF5001F02D2084600F088BD70B51C
:103BB00000F0C6FA00000089FFF7F6BF4FF00040A2
:103BC000A0F580007047000002494FF0000000F0AF
:103BD000F3BD00BF0000F87F491058BFC1F140415C
:103BE0005B1058BFC3F140438B42EFF30080704736
:103BF0002DE9C04130B4DFF8A0C23CEA111418BF6F
:103C00003CEA131400F0EC8081EA03051CEA11146D
:103C100044EAD57418BF1CEA131500F0C780A4EB62
:103C200005044FF0004545EAC12145EAC32341EAB6
:103C3000505143EA525304F17F74994204F5003421
:103C40004FEAC0204FEAC22208BF904200F09C8099
:103C50004FEA13650FF24016765D4FEA134506FBF7
:103C600005F7C7F1807706FB07F74FEAD737A7FBC1
:103C700003687642C8F58038A7FB06CE38BFA8F1A6
:103C8000010807FB08E64FF0000EA6FB028CE6FBDE
:103C900003CEDCF1000CCEF1004E38BFAEF1010EC8
:103CA000A6FB0C584FF000074FF00005E6FB0E870F
:103CB000A1FB08C6A0FB07CE16EB0E0645F10005DA
:103CC000E1FB076515F1E04E7EBFA4F580345FEAA5
:103CD00046066D4116F1800745F100054FEA1727AA
:103CE0004FEA066647EA0567A6F1DE46B6F1805F51
:103CF0004FEA15251FD9384624F0010C05EBC47195
:103D0000BCF1FE6F01EB0C1102D8F0BCBDE80081E4
:103D100024425CBF01F5801E9EEAC47F02D4F0BC41
:103D2000BDE80081244238D4F0BCA1F1C041BDE817
:103D3000004100F053BA4FEAD22242EA43524FEA1E
:103D4000D323A7FB02864FEAD02040EA415007FB6D
:103D500003661EEA0E0F4FEAD12105FB026658BF2B
:103D6000A6EB0056B6EB00564FEA520E4EEAC37E63
:103D700018EB0E0E56EB530EBDD518EB02085E4144
:103D80007F1C55F10005B6E74FF480154FF0000792
:103D90004FF000064FF00008ADE7F0BC4FF0000018
:103DA00001F1C04101F00041BDE8008111EA0C1FA2
:103DB0000CEA131500D00CE013EA0C1F00F025806C
:103DC0004FF00000F0BC81EA030101F00041BDE8C2
:103DD0000081F0BCBDE8004181EA030100F0FEB9BA
:103DE000F0BCBDE8004170B500F0AAF9097EFC3EC8
:103DF00000F007B881EA03014FF0000001F0004134
:103E0000704781EA030100F0E9B9F0BCBDE8004168
:103E10004FF0000021497047FFFDFBF9F7F5F4F280
:103E2000F0EEEDEBE9E8E6E4E3E1E0DEDDDBDAD855
:103E3000D7D5D4D3D1D0CFCDCCCBCAC8C7C6C5C4B3
:103E4000C2C1C0BFBEBDBCBBBAB9B8B7B6B5B4B3CA
:103E5000B2B1B0AFAEADACABAAA9A8A8A7A6A5A4B5
:103E6000A3A3A2A1A09F9F9E9D9C9C9B9A99999879
:103E70009797969595949393929191908F8F8E8E1C
:103E80008D8C8C8B8B8A89898888878786858584A9
:103E900084838382828181800000FF070000F87F95
:103EA00051EA030C17D41CF5801F58BFBCF5801FC6
:103EB00000F10680994218BF704708BF90427047D2
:103EC00007D711F5801F58BF13F5801F19D49942E9
:103ED0007047894270471CF5801F08D5BCF5801FCC
:103EE000F7D58B4218BF704708BF824270474FF426
:103EF000001C1CEB410F38BF1CEB430F01D28B425F
:103F0000704770B500F01CF9922449004FF0005141
:103F10004FF08053FFF760BE4FEA1153A3F5806363
:103F2000D3F11E03A8BFD3F1200C08DB4FF00042F1
:103F300042EAC12252EA505232FA03F07047094273
:103F40000BD4102BC4BF0020704703F5787CBCF164
:103F5000FF3F05D04FF0FF3070474FF00000704733
:103F600070B500F0EDF800BF499224800020704742
:103F7000F0E7000051EA030C17D41CF5801F58BF6E
:103F8000BCF5801F00F10680994218BF704708BF3A
:103F90009042704707D711F5801F58BF13F5801F57
:103FA00019D499427047894270471CF5801F08D583
:103FB000BCF5801FF7D58B4218BF704708BF8242FF
:103FC00070474FF4001C1CEB410F38BF1CEB430F34
:103FD00001D28B42704770B500F0B2F892244900CC
:103FE0004FF000514FF08053FFF7F6BDDFF848C1A6
:103FF00070B51CEA111E1EBF1CEA13159EEA0C0FB9
:1040000095EA0C0F00F06F8081EA030423EA4C1359
:104010004EEAD47E21EA4C1141F4801143F480131E
:10402000AE44A1FB024CA0FB0365AEF17F7E3619C6
:1040300055EB0C05A1FB034C4CF10003A0FB021C4B
:1040400016EB0C06654153F10003094218BF46F018
:10405000010613F4007F0BD14FEA03314FEA05301C
:10406000340341EA155140EA16506FF003020AE0AA
:104070004FEAC3214FEAC520F40241EA555140EA14
:1040800056506FF0020202EB2E4201EB025585EA18
:10409000CE710AD05FEA440C18BF24F0004450F1FE
:1040A000000041F1000120EAD47040F2FE7C62453C
:1040B00000D270BDA84214BF4FF080444FF040447E
:1040C000002E08BF0024BEF1806FA8BFA1F1C0413F
:1040D000BDE8704080F282804FF0000001F1C041E5
:1040E00001F0004170479EEA0C0F0CEA131518BF4F
:1040F00095EA0C0F06D04FF0000081EA030E0EF097
:10410000004170BD00F01CF88900013E00F007B8C6
:1041100000F009B84FEA430C5FEA5C5C08D081EA22
:10412000030100F05BB84FEA410C5FEA5C5CF6D13A
:104130004FF00000014970470000FF070000F87FC2
:104140000EF1020E2EF0030E5EF8046B364205D41B
:10415000012A43EB030515F5001F12D8012841EB96
:10416000010C1CF5001F0CD80ED14FEAD17C15F5BF
:10417000001F0CEB4C0C0CF1020C08BF4CEBD37C79
:1041800004E04FF0080C01E04FEAD37C0CEB4C0547
:1041900026FA05F606F00706B6F1040C06D20EEB79
:1041A000860CBDE870404CF0010C6047DFE80CF075
:1041B000090B02024FF000414FF00000A1F5002171
:1041C00070BD19461046012851EB010418BFD4F503
:1041D000001484BF002001F0004170BD0808A0F564
:1041E00000114FEA3101704753EA010C17D41CF556
:1041F000801F58BFBCF5801F00F106808B4218BF9E
:10420000704708BF8242704707D713F5801F58BF19
:1042100011F5801F19D48B4270479B4270471CF5E3
:10422000801F08D5BCF5801FF7D5994218BF70478D
:1042300008BF904270474FF4001C1CEB430F38BF7F
:104240001CEB410F01D2994270470FB40CBC03BC68
:10425000FFF7C1BE43004FEAD30C4FEA3C0C43408A
:104260001FBF40070CF1605113F0FE4F70471CF068
:10427000006F03D100200CF0004170470CF00043A8
:1042800043EA507010B540EACC0000F0D2F900BF0C
:10429000000000924FEA0001FFF7A0BF4FF000417D
:1042A0004FF00000A1F500217047000090EA010FD7
:1042B00048BF81F0004100F10E82421A3CBF801AD3
:1042C00089184FEAD0524FF07F4C1CEA410FA2EB05
:1042D000D15318BF9CEA026F00F03B804FF0004CB6
:1042E0004CEA00204CEA012121FA03FC10EB0C0CF3
:1042F0001ED202F1FF325FEA1C2040EBC25038BFF1
:1043000070471CF07F0F4FEA400C18BFBCF17F4F85
:1043100038BF7047C3F12003994008BF20F0010067
:10432000BCF17F4F38BF7047A0F1C04000F0C7B963
:104330004FEA3C00000A40EBC25028BF1CF0FF0FC0
:104340004FEA400CE6D018BFBCF17F4F38BF704732
:10435000EAE79CEA026F05D010EA5C0F08BF00F0A4
:104360000040704710B500F064F900BF64FBBE3E2A
:10437000014800F021BA00BF0000C07F4FF47F0C5D
:104380001CEAD0121EBF1CEAD11392EA0C0F93EA6A
:104390000C0F00F0858090EA010F48BF42F4807254
:1043A00040F4000C41F400002CF07F4120F07F40ED
:1043B00000B58142A2EB03020FF2081CACEB504E99
:1043C000C0F100009EF800E04FEA4E0E00FB0EFC2C
:1043D00038BF49004FEA2C1C02F5FA020CFB0EF321
:1043E0004FEACE1E4FEA112C4FEAC1210EEB635E5D
:1043F00042EB22420EFB0CFC4FEA1C5300FB031164
:104400004FEA112C4FEA01310EFB0CFC4FEADC4C59
:1044100000FB0C11C14228BF09184CEB03335DF8B7
:1044200004EB10EB410143EBC250B2F57C0F38BFF7
:10443000704729D512F0F00F1CBF00F1C04000F00A
:1044400000407047008182838485868788898B8CB1
:104450008D8E8F919293959697999A9C9D9FA0A2ED
:10446000A3A5A7A8AAACAEB0B2B3B5B7B9BCBEC03D
:10447000C2C5C7C9CCCED1D4D7D9DCDFE2E6E9ECDE
:10448000F0F3F7FAFE0000004FEA400C0CF1807CDC
:10449000BCF17E4F28BF7047B0F1C04000F00FB9AB
:1044A00090EA010F0CEAD11348BF42F480726245D2
:1044B00038BF634507D213F47F0F16D080EA01009E
:1044C00000F00040704710B500F0B3F8097EFC3EE4
:1044D00000F005B880EA010000F00040704780EA73
:1044E000010000F0004000F0EAB812F47F0F04BFB2
:1044F0000248704780EA010000F0E1B80000C07F88
:1045000010F0004148BF4042B0FA80F310FA03F2C5
:10451000C3F19D030BD051EAC35101EB12205306A6
:1045200038BF704700F1010008BF20F0010070475C
:104530004FF47F0C1CEAD0121EBF1CEAD11392EA82
:104540000C0F93EA0C0F00F0478090EA010F48BF70
:1045500042F480724FF0004C4CEA00204CEA0121FA
:1045600002EB0302A0FB0113A2F50002002918BF11
:1045700043F001035B0028BF4FEA330342EB2242C2
:104580005FEA132C4CEBC2502EBFBCEB436FB2F56D
:104590007C0F70474FEA036CBCF1004F08BF20F05E
:1045A0000100B2F57C0F38BF70470BD582F0FF02D7
:1045B00012F5803FC8BF704700F1C040D8BF00F07F
:1045C0000040704700F5000C5FEA4C0C48BF704794
:1045D000B0F1C04000F073B890EA010F0CEAD113BB
:1045E00048BF42F48072624538BF634504D280EA16
:1045F000010000F00040704710B500F01AF800BF4D
:104600008900013E00F007B800F009B85FEA410CEC
:104610005FEA1C6C08D080EA010000F050B85FEA45
:10462000400C5FEA1C6CF6D14FF00040A0F5800012
:1046300070470EF1020E2EF0030E5EF8044B24427A
:1046400004D44FEA4102B2F17F4F11D84FEA400340
:10465000B3F17F4F0CD80ED14FEAD07CB2F17F4F2F
:104660000CEB4C0C0CF1020C08BF4CEBD17C04E0C1
:104670004FF0080C01E04FEAD17C0CEB4C0324FA1C
:1046800003F404F00704B4F1040C06D20EEB840C1E
:10469000BDE810404CF0010C6047DFE80CF0070863
:1046A00002024FF00040A0F5800010BD0846420015
:1046B00018BFD2F1807288BF00F0004010BDFF210A
:1046C00041EAD050C005704790EA010F48BF81F021
:1046D00000413FF5F2AD421A04D882F00042A0EB4F
:1046E000020011444FEAD0524FF07F4C1CEA410FB8
:1046F000A2EBD15318BF9CEA026F4AD04FF0004C96
:104700004CEA00204CEA012121FA03FCB0EB0C0C2E
:104710000FD412F0FE0F36D05FEA4C001DD5001208
:1047200040EBC25038BF70471CF03F0F18BF7047B6
:104730000BE0A2F101025FEA1C2040EBC25038BF3F
:1047400070471CF07F0F18BF7047C3F120039940DA
:1047500014BF401E20F00100704780084FEA12236A
:1047600008BF7047B0FA80FCA2EB0C02CCF1280C19
:1047700060FA0CF093EA122F04BF00EBC2507047AE
:104780004FEAC3707047130A5FEADC1008BF704736
:10479000F6E79CEA026F04D010EA5C0F08BF002025
:1047A000704710B5FFF745FF40DFF63E81F000404F
:1047B00070474FF0000070470CF00F03092B08BF43
:1047C000082000F085800A2B0BD0082B18BF7047FB
:1047D00008BF1CF0400F0AD04FF000004FF000015E
:1047E00070471CF0400F18BF4FF0004070471CF09E
:1047F000100F08D020F0704300F07F4242EAD3014E
:104800004FEA4370704700F0604021F07F4242EA77
:10481000000201F07F4040EA727070474FF0FF0CD9
:104820004CF4E06C1CEA11531CBF9CEA030C944549
:10483000C2BFDA4201EB02517047002B0DD0BCF130
:10484000000F0FD0002A01F00041A4BF41F0E04169
:1048500041F07F614FF00000704701F000414FF0E0
:104860000000704750EA01334FF09B0C18BF4CF02A
:10487000806C7FF4A9A970474FF0FF0212EAD05272
:104880001CBF92F0FF038B42C2BFD14200EBC1506C
:104890007047002A0AD0002B0BD0002900F00040FE
:1048A000A4BF40F0FE4040F40000704700F000401C
:1048B000704743024FF00B0C18BF4CF0806C7FF434
:1048C00057AD7047FBF7FCBDFCF702BAFCF790BB95
:1048D0001CF4801F11D01CF4E02F03D06FEACC3100
:1048E000490070474FF04050EFF3008222F07042D1
:1048F00042EA000282F3008870474FF000007047E0
:10490000010202030405060708090A0B0C0D0E0F2D
:104910001010000000000000000001020304060760
:10492000080900000000010203040000024000002A
:10493000000000A00000000005400000000000C8CA
:10494000000000000C4000000000409C000000003F
:10495000194000000020BCBE0000000034400000F0
:10496000BFC91B8E00000004B5400000504BCFD0E3
:104970006607E2CF010000006C4100003E8251AAB0
:10498000DFEEA73401000000D9420000DCB5A0E250
:104990003A301F97FFFFFFFFB4450000FD25A0C878
:1049A000E9A3C14FFFFFFFFFFF3F000000000080B1
:1049B00000000000FF3F0000000000800000000039
:1049C0001C4B0008000000203800000028010008EF
:1049D000544B0008380000208808000044010008FB
:1049E000000000000000F07FFFFFFFFFFFFFEF7FF0
:1049F0001C00000043000000F8FFFFFF0C00000057
:104A00000E0000000F0000002E000000100100004A
:104A100043000000F8FFFFFF00404040404040409E
:104A20004040414141414140404040404040404081
:104A30004040404040404040400502020202020225
:104A40000202020202020202022020202020202074
:104A50002020200202020202020290909090909088
:104A60001010101010101010101010101010101046
:104A700010101010020202020202888888888888BA
:104A800008080808080808080808080808080808A6
:104A900008080808020202024000000000000000AE
:104AA0000000000000000000000000000000000006
:104AB00000000000000000000000000000000000F6
:104AC00000000000000000000000000000000000E6
:104AD00000000000000000000000000000000000D6
:104AE00000000000000000000000000000000000C6
:104AF00000000000000000000000000000000000B6
:104B000000000000000000000000000000000000A5
:104B10000000000000000000000000000000000095
:104B20000000000000000000000000000000000085
:104B3000000000000000000056302E342C543230AB
:104B40002E320000010000001000000000000000F4
:044B50000024F40049
:04000005080000ED02
:00000001FF
